:020000040800F2
:1000000000000220A1130008E1120008E912000814
:10001000F1120008F91200080113000800000000A6
:1000200000000000000000000000000009130008AC
:100030001713000800000000251300083313000800
:10004000F1130008F1130008F1130008F113000880
:10005000F1130008F1130008F1130008F113000870
:10006000F1130008F1130008F1130008F113000860
:10007000F1130008F1130008F1130008F113000850
:10008000F1130008F1130008F1130008F113000840
:10009000F1130008F1130008F1130008F113000830
:1000A000F1130008F1130008F1130008F113000820
:1000B000F1130008F1130008F1130008F113000810
:1000C000F1130008F1130008F1130008F113000800
:1000D000F1130008411300085513000869130008C4
:1000E000F1130008F1130008F1130008F1130008E0
:1000F000F1130008F1130008F1130008F1130008D0
:10010000F1130008F1130008F1130008F1130008BF
:10011000F1130008F1130008F1130008F1130008AF
:10012000F1130008F1130008F1130008F11300089F
:10013000F1130008F1130008F1130008F11300088F
:10014000F1130008F1130008F1130008F11300087F
:10015000F1130008F1130008F1130008F11300086F
:10016000F1130008F1130008F1130008F11300085F
:10017000F1130008F1130008F1130008000000005B
:08018000F1130008F11300085F
:1001880010B5054C237833B9044B13B10448AFF3C9
:1001980000800123237010BD0C0000200000000027
:1001A800F436000808B5034B1BB103490348AFF305
:1001B800008008BD0000000010000020F436000890
:1001C80053B94AB9002908BF00281CBF4FF0FF31B6
:1001D8004FF0FF3000F088B9ADF1080C6DE904CE9E
:1001E80000F006F8DDF804E0DDE9022304B070470A
:1001F8002DE9F047089D8E4604468846002B4AD1D3
:100208008A42174662D9B2FA82F64EB1C6F1200385
:1002180001FA06F820FA03F3B74043EA0808B440A5
:100228004FEA174E1FFA87FCB8FBFEF1230C0EFBB2
:10023800118843EA084301FB0CF29A4209D9FB18DA
:1002480001F1FF3080F0EA809A4240F2E7800239FB
:100258003B449A1AA3B2B2FBFEF00EFB102243EA0B
:10026800024300FB0CFC9C4509D9FB1800F1FF3246
:1002780080F0D6809C4540F2D3803B44023840EA67
:100288000140A3EB0C0300211DB1F3400022C5E996
:100298000032BDE8F0878B4205D90DB1C5E90001F0
:1002A80000210846F5E7B3FA83F1002946D17345E2
:1002B80002D3824200F20581841A6EEB0302012008
:1002C8009046002DE5D0C5E90048E2E7002A00F095
:1002D8009080B2FA82F6002E40F0A4808A1A030CAD
:1002E8004FEA174E80B2BCB20121B2FBFEFC0EFBF6
:1002F8001C2243EA024304FB0CF29A4207D9FB187A
:100308000CF1FF3802D29A4200F2E080C4469B1AF0
:10031800B3FBFEF20EFB123340EA034302FB04F484
:100328009C4207D9FB1802F1FF3002D29C4200F22E
:10033800CA8002461B1B42EA0C40A5E7C1F1200611
:100348008B4022FA06F71F430EFA01F420FA06F34F
:100358002EFA06FE4FEA1749234300FA01F81FFA5E
:1003680087FCBEFBF9F01C0C09FB10EE44EA0E44B6
:1003780000FB0CFEA64502FA01F209D93C1900F16E
:10038800FF3A80F09C80A64540F2998002383C44B0
:10039800A4EB0E041FFA83FEB4FBF9F309FB134424
:1003A8004EEA044403FB0CFCA44508D93C1903F1AC
:1003B800FF3E80F08280A4457FD9023B3C4443EA5B
:1003C8000040A4EB0C04A0FB02EC64457346E14634
:1003D80062D35FD05DB1B8EB030264EB090404FAA1
:1003E80006F622FA01F31E43CC40C5E90064002159
:1003F8004FE7B1FBF2FC010C41EA0E4180B240EA42
:1004080001423B4638463C46B846BE462026B1FB2C
:10041800F7F1A2EB080241EA0C4166E7014618E74A
:1004280010462CE7C6F120022EFA02F3B740B1407D
:1004380020FA02F24FEA174E0A43B3FBFEF8BCB2A9
:100448000EFB1833110C41EA034108FB04F9B040D4
:1004580089454FEA104380B23ED9791808F1FF3C2C
:1004680001D289451FD8A1EB0901B1FBFEF909FBAF
:1004780004F80EFB191192B242EA0142424529D210
:10048800BA1809F1FF31C4D24245C2D2A9F102011A
:100498003A44BEE7F0459DD2BEEB02036CEB070C75
:1004A8000138E14696E7A7EB09094944A8F1020C8F
:1004B800B1FBFEF909FB04F8DBE773467FE750461A
:1004C80066E70846FDE63B44023A33E7ACF1020C26
:1004D8003B441CE749469CE7A1EB0901C446B1FB34
:1004E800FEF909FB04F8C4E7704700BF80B483B085
:1004F80000AF0023FB710123FB71FB7918460C3711
:10050800BD465DF8047B704780B582B000AFFFF749
:10051800EDFF0346FB71FB7903F00403002B02D0C7
:100528000123BB7101E00023BB7100F0C5FF024647
:10053800164B1B68D31A042B0FD900F0BDFF0346D6
:10054800124A13604FF40051114801F01AFBFB796D
:100558001A46A521992000F04DFB00F0ADFF024698
:100568000C4B1B68D31AB3F5967F0AD300F0A4FF8F
:100578000346084A1360D22304220121AA2000F06E
:1005880075FA00BF0837BD4680BD00BF28000020AF
:10059800000802402C00002080B588B000AF00F0B1
:1005A80025FF00237B602B4B1B6B2A4A43F0040377
:1005B8001363284B1B6B03F004037B607B6807F114
:1005C800080300221A605A609A60DA601A614FF4D0
:1005D8000053BB600123FB6000233B6100237B6168
:1005E80007F1080319461C4801F016F90023FB61BE
:1005F80011E04FF40051184801F0C3FA00233B60A2
:1006080002E03B6801333B603B68144A9342F8DDE3
:10061800FB690133FB61FB69132BEADD00F020F86D
:1006280000F034F900F0B4F800F0DCF800F004F958
:1006380000F080F800F076FC00F0C4F900F0F2F960
:1006480000F000FA00F00AFA00F064FCFFF75CFF23
:1006580000BFF9E700380240000802403F420F009F
:1006680080B594B000AF07F120033022002118466E
:1006780003F002F807F10C0300221A605A609A602E
:10068800DA601A610023BB60284B1B6C274A43F0D1
:1006980080531364254B1B6C03F08053BB60BB680D
:1006A80000237B60224B1B68214A43F4804313607C
:1006B8001F4B1B6803F480437B607B6802233B620B
:1006C8000123FB6210233B630223BB630023FB630C
:1006D80008233B64A8237B640223BB640423FB64D4
:1006E80007F12003184601F0ABFB0346002B01D0AD
:1006F80000F062F90F23FB6002233B6100237B615A
:100708004FF4A053BB614FF48053FB6107F10C0316
:100718000521184601F00CFE0346002B01D000F01D
:100728004BF900BF5037BD4680BD00BF00380240BE
:100738000070004080B500AF124B134A1A60114B8D
:10074800124A5A600F4B00229A600E4B0022DA6060
:100758000C4B4FF480421A610A4B00225A61094B34
:1007680000229A61074B0022DA61064B00221A62C6
:10077800044801F021FA0346002B01D000F01CF9CF
:1007880000BF80BD3000002000540040A08601005A
:1007980080B500AF114B124A1A60104B4FF4E1328A
:1007A8005A600E4B00229A600C4B0022DA600B4B09
:1007B80000221A61094B0C225A61084B00229A61E7
:1007C800064B0022DA61054801F092FF0346002B30
:1007D80001D000F0F1F800BF80BD00BF8400002008
:1007E8000010014080B500AF114B124A1A60104B3F
:1007F8004FF4E1325A600E4B00229A600C4B0022F3
:10080800DA600B4B00221A61094B0C225A61084B23
:1008180000229A61064B0022DA61054801F068FF60
:100828000346002B01D000F0C7F800BF80BD00BF11
:10083800CC0000200044004080B500AF114B124AA4
:100848001A60104B4FF4E1325A600E4B00229A6046
:100858000C4B0022DA600B4B00221A61094B0C2268
:100868005A61084B00229A61064B0022DA6105485A
:1008780001F03EFF0346002B01D000F09DF800BFB9
:1008880080BD00BF140100200048004080B58AB038
:1008980000AF07F1140300221A605A609A60DA6008
:1008A8001A6100233B613F4B1B6B3E4A43F0040334
:1008B80013633C4B1B6B03F004033B613B69002350
:1008C800FB60384B1B6B374A43F001031363354B0E
:1008D8001B6B03F00103FB60FB680023BB60314B1B
:1008E8001B6B304A43F0020313632E4B1B6B03F060
:1008F8000203BB60BB6800237B602A4B1B6B294A41
:1009080043F008031363274B1B6B03F008037B605A
:100918007B6800224FF6FF71234801F019F9002285
:100928000F21224801F014F94FF6FF737B61012370
:10093800BB610023FB6100233B6207F114031946E6
:10094800194800F069FF4FF460437B610023BB61E5
:100958000023FB6107F114031946154800F05CFFFA
:100968000F237B610123BB610023FB6100233B62F2
:1009780007F1140319460D4800F04EFF0C237B6164
:100988000223BB610023FB6103233B6207237B62D5
:1009980007F114031946074800F03EFF00BF283747
:1009A800BD4680BD0038024000080240000C0240ED
:1009B800000402400000024080B400AF72B600BFDD
:1009C80000BFFDE780B483B000AF104B00221A804F
:1009D8000F4B00221A800F4B00221A700E4B002278
:1009E8001A700E4B00221A7000237B600C4B1B6898
:1009F8001B687B600A4B1B685B687B607B6800BF79
:100A08000C37BD465DF8047B704700BF5C020020D0
:100A18005E020020B4020020B5020020B6020020C9
:100A28008400002080B500AFFFF7CCFF0122034906
:100A3800034801F0E3FE00BF80BD00BF6002002054
:100A48008400002080B400AF034B00221A7000BF5E
:100A5800BD465DF8047B7047B602002080B400AF45
:100A680000BFBD465DF8047B7047000090B583B0B9
:100A780000AF0446084611461A462346FB71034652
:100A8800BB710B467B7113463B710A4AFB791370A5
:100A9800084ABB795370074A7B799370054A3B79BA
:100AA800D37004220349044801F072FE00BF0C37DA
:100AB800BD4690BDB80200201401002080B485B066
:100AC80000AF0346FB710B46BB7113467B711E4B8F
:100AD8001B78DBB201335A4203F00F0302F00F0216
:100AE80058BF5342FB73194B1B78DBB2FA7B9A420F
:100AF80023D0154B1B78DBB21A46154BBB2103F8E4
:100B08002210114B1B78DBB2114A9B001344FA796F
:100B18005A700D4B1B78DBB20D4A9B001344BA790F
:100B28009A70094B1B78DBB2094A9B0013447A7907
:100B3800DA70054AFB7B137000E000BF1437BD462E
:100B48005DF8047B704700BFB4020020B5020020A6
:100B58007402002080B500AF0E4B1B78DBB2002B6F
:100B680016D10D4B1B78DAB20C4B1B78DBB29A42CC
:100B78000FD0084B01221A70074B1B78DBB29B0081
:100B8800074A134404221946064801F001FE00E012
:100B980000BF80BDB6020020B5020020B4020020CC
:100BA80074020020CC00002080B483B000AF7860CD
:100BB8007B681B680C4A934210D10C4B1B78DBB244
:100BC80001335A4203F00F0302F00F0258BF534299
:100BD800DAB2064B1A70064B00221A7000BF0C37A7
:100BE800BD465DF8047B704700440040B502002014
:100BF800B602002080B582B000AF0346FB710B46F9
:100C0800BB7113467B71094AFB791370074ABB799C
:100C18005370064A7B79937003220449044801F013
:100C2800B7FD00BF0837BD4680BD00BFBC0200202D
:100C38008400002080B584B000AF78607B681B68B2
:100C4800134A93421FD1134B1B889BB201335A425C
:100C5800DBB2D2B258BF5342FB810F4B1B889BB209
:100C6800FA899A420AD00B4B1B889BB21A460B4B47
:100C780019780B4B9954074AFB89138001220749BD
:100C8800084801F0BBFD00BF1037BD4680BD00BF5E
:100C9800001001405C0200205E020020600200207B
:100CA8005C0100208400002080B586B000AF786029
:100CB8007B681B68164A934225D100237B617B68B9
:100CC8001B681B687B617B681B685B687B617B6951
:100CD80000233B617B681B681B683B617B681B6862
:100CE8005B683B613B690023FB607B681B681B6892
:100CF800FB607B681B685B68FB60FB680122054939
:100D0800054801F07BFD00BF1837BD4680BD00BF18
:100D180000100140600200208400002080B584B0EB
:100D280000AF78607B689B78FB73FB7BBB60B8681F
:100D380000F056F900BF1037BD4680BD80B584B0BD
:100D480000AF78607B6802330D2219461C4802F018
:100D5800BFFC0023BB601A4B1B781A46BB681343C1
:100D6800BB60174B5B781B02BA681343BB60144B1C
:100D78009B781B04BA681343BB60B86800F030F96D
:100D88000023FB6013E0FB68DBB20133D8B2FB68D9
:100D98005B0003330A4AD15CFB6802335B00084AF4
:100DA800D35C1A46FFF78AFEFB680133FB60FB68D9
:100DB800042BE8DD00BF00BF1037BD4680BD00BF73
:100DC8006402002080B582B000AF8AE04C4B1B88DB
:100DD8009BB21A464B4B9B5C7B71494B1B889BB261
:100DE80001335A42DBB2D2B258BF53429AB2444B93
:100DF8001A80454B1B78132B09D8434B1B785A1C78
:100E0800D1B2414A11701946404A7B7953543E4B3E
:100E18001B78022B0ED93D4B1B78992B0AD13B4BE3
:100E28005B78A52B06D13948FFF778FF364B0022AF
:100E38001A7056E0344B1B780E2B0ED9334B1B78A7
:100E4800A52B0AD1314B5B78992B06D12F48FFF798
:100E580075FF2D4B00221A7043E02B4B1B78132B88
:100E68003FD90023FB710123BB712EE0BB79274AD0
:100E7800D35C992B05D1BB790133244AD35CA52BCC
:100E88000AD0BB79214AD35CA52B1BD1BB7901338E
:100E98001E4AD35C992B15D1BB791C4A99181A4B59
:100EA8001B781A46BB79D31A1A46184802F0CAFBAF
:100EB800154B1A78BB79D31ADAB2134B1A7001237F
:100EC800FB7108E0BB790133BB71BA790E4B1B7813
:100ED800013B9A42CADBFB79002B02D10A4B002264
:100EE8001A70074B1B889AB2094B1B889BB29A420F
:100EF8007FF46CAF00BF00BF0837BD4680BD00BFA0
:100F08005E0200205C010020BF020020C002002019
:100F18005C02002080B500AFFFF754FFFFF71AFE10
:100F280000BF80BD80B588B000AF07F10C03002278
:100F38001A605A609A60DA601A610023BB60244B19
:100F48001B6B234A43F004031363214B1B6B03F011
:100F58000403BB60BB6800237B601D4B1B6B1C4AF2
:100F680043F0080313631A4B1B6B03F008037B6001
:100F78007B6800233B60164B1B6B154A43F001034B
:100F88001363134B1B6B03F001033B603B684FF685
:100F9800FF73FB6001233B610023BB6107F10C0376
:100FA80019460C4800F038FC0F23FB6007F10C03CE
:100FB8001946094800F030FCF023FB6007F10C03E8
:100FC8001946064800F028FC00BF2037BD4680BD02
:100FD8000038024000080240000C024000000240B5
:100FE80080B489B000AF78607B689BB2FB617B6896
:100FF800DB439BB2BB61BB691A041649FB69134307
:101008008B617B681B0C03F00F037B617B68DB4300
:101018001B0C03F00F033B613B691A040E497B6903
:1010280013438B617B681B0D03F00F03FB607B6828
:10103800DB431B0D03F00F03BB60BB681A05FB689D
:101048001B01064913438B6100BF2437BD465DF879
:10105800047B704700080240000C02400000024078
:1010680080B483B000AF00237B60104B5B6C0F4AE9
:1010780043F4804353640D4B5B6C03F480437B6003
:101088007B6800233B60094B1B6C084A43F0805384
:101098001364064B1B6C03F080533B603B6800BF36
:1010A8000C37BD465DF8047B704700BF003802402E
:1010B80080B58AB000AF786007F1140300221A6087
:1010C8005A609A60DA601A617B681B68194A934211
:1010D8002BD100233B61184B1B6B174A43F00203CB
:1010E8001363154B1B6B03F002033B613B69C02381
:1010F8007B611223BB610023FB6103233B62042352
:101108007B6207F1140319460C4800F085FB0023A5
:10111800FB60094B1B6C084A43F400131364064B2D
:101128001B6C03F40013FB60FB6800BF2837BD4647
:1011380080BD00BF00540040003802400004024057
:1011480080B58EB000AF786007F1240300221A60E2
:101158005A609A60DA601A617B681B68584A934241
:1011680035D100233B62574B5B6C564A43F0100362
:101178005364544B5B6C03F010033B623B6A0023DF
:10118800FB61504B1B6B4F4A43F0010313634D4BFC
:101198001B6B03F00103FB61FB694FF4C0637B62C7
:1011A8000223BB620023FB6203233B6307237B63A9
:1011B80007F124031946444800F02EFB00220021C1
:1011C800252000F060FA252000F079FA73E07B68AA
:1011D8001B683E4A934234D10023BB61394B1B6CD8
:1011E800384A43F400331364364B1B6C03F4003362
:1011F800BB61BB6900237B61324B1B6B314A43F0F7
:10120800010313632F4B1B6B03F001037B617B69A5
:101218000C237B620223BB620023FB6203233B6334
:1012280007237B6307F124031946274800F0F4FAE3
:1012380000220021262000F026FA262000F03FFA9E
:1012480039E07B681B68224A934234D100233B6112
:101258001C4B1B6C1B4A43F480231364194B1B6CF7
:1012680003F480233B613B690023FB60154B1B6B38
:10127800144A43F002031363124B1B6B03F002037F
:10128800FB60FB684FF440637B620223BB62002370
:10129800FB6203233B6307237B6307F1240319469F
:1012A8000C4800F0B9FA00220021272000F0EBF9E1
:1012B800272000F004FA00BF3837BD4680BD00BFC4
:1012C8000010014000380240000002400044004085
:1012D800004800400004024080B400AF00BFFDE7B2
:1012E80080B400AF00BFFDE780B400AF00BFFDE7EA
:1012F80080B400AF00BFFDE780B400AF00BFFDE7DA
:1013080080B400AF00BFBD465DF8047B704780B471
:1013180000AF00BFBD465DF8047B704780B400AFE6
:1013280000BFBD465DF8047B704780B500AF00F094
:10133800AFF800BF80BD000080B500AF024801F0E3
:1013480083FA00BF80BD00BF8400002080B500AFD5
:10135800024801F079FA00BF80BD00BFCC00002030
:1013680080B500AF024801F06FFA00BF80BD00BF32
:101378001401002080B400AF064BD3F88830054A2A
:1013880043F47003C2F8883000BFBD465DF8047BA3
:10139800704700BF00ED00E0DFF834D0FFF7EAFF48
:1013A8000C480D490D4A002302E0D458C4500433B8
:1013B800C4188C42F9D30A4A0A4C002301E013608E
:1013C8000432A242FBD302F05FF9FFF7E5F8704759
:1013D80000000220000000200C0000203437000824
:1013E8000C000020D8020020FEE7000080B500AF06
:1013F8000E4B1B680D4A43F4007313600B4B1B68BC
:101408000A4A43F480631360084B1B68074A43F495
:1014180080731360032000F02BF90F2000F008F808
:10142800FFF71EFE0023184680BD00BF003C0240A7
:1014380080B582B000AF7860124B1A68124B1B78E7
:1014480019464FF47A73B3FBF1F3B2FBF3F3184682
:1014580000F043F90346002B01D001230EE07B681E
:101468000F2B0AD8002279684FF0FF3000F00BF9F3
:10147800064A7B681360002300E0012318460837FA
:10148800BD4680BD000000200800002004000020A8
:1014980080B400AF064B1B781A46064B1B681344F2
:1014A800044A136000BFBD465DF8047B704700BF67
:1014B80008000020D402002080B400AF034B1B6852
:1014C8001846BD465DF8047B704700BFD402002073
:1014D80080B485B000AF78607B6803F00703FB60D9
:1014E8000C4BDB68BB60BA684FF6FF031340BB6068
:1014F800FB681A02BB68134343F0BF6343F400332D
:10150800BB60044ABB68D36000BF1437BD465DF8B2
:10151800047B704700ED00E080B400AF044BDB684B
:101528001B0A03F007031846BD465DF8047B7047A5
:1015380000ED00E080B483B000AF0346FB7197F97B
:101548000730002B0BDBFB7903F01F02074997F9E3
:1015580007305B09012000FA02F241F8232000BF9E
:101568000C37BD465DF8047B704700BF00E100E022
:1015780080B483B000AF03463960FB7197F9073038
:10158800002B0ADB3B68DAB20C4997F907301201E5
:10159800D2B20B4483F800230AE03B68DAB2084968
:1015A800FB7903F00F03043B1201D2B20B441A7605
:1015B80000BF0C37BD465DF8047B704700E100E0D2
:1015C80000ED00E080B489B000AFF860B9607A60DF
:1015D800FB6803F00703FB61FB69C3F10703042BF6
:1015E80028BF0423BB61FB690433062B02D9FB69BE
:1015F800033B00E000237B614FF0FF32BB6902FA36
:1016080003F3DA43BB681A407B699A404FF0FF3115
:101618007B6901FA03F3D9437B680B4013431846EF
:101628002437BD465DF8047B7047000080B582B062
:1016380000AF78607B68013BB3F1807F01D3012361
:101648000FE00A4A7B68013B53600F214FF0FF30DF
:10165800FFF78EFF054B00229A60044B07221A60A1
:10166800002318460837BD4680BD00BF10E000E0E3
:1016780080B582B000AF78607868FFF729FF00BFB7
:101688000837BD4680BD80B586B000AF0346B96057
:101698007A60FB7300237B61FFF73EFF78617A680D
:1016A800B9687869FFF78EFF024697F90F3011463F
:1016B8001846FFF75DFF00BF1837BD4680BD80B5EF
:1016C80082B000AF0346FB7197F907301846FFF761
:1016D80031FF00BF0837BD4680BD80B582B000AF7E
:1016E80078607868FFF7A2FF034618460837BD46BA
:1016F80080BD80B584B000AF78607B689B6DFB606F
:10170800FFF7DAFEB8607B6893F83530DBB2022B5E
:1017180008D07B6880225A657B68002283F83420D1
:10172800012352E07B681B681A687B681B6822F0FB
:1017380016021A607B681B685A697B681B6822F06E
:1017480080025A617B681B6C002B03D17B689B6C01
:10175800002B07D07B681B681A687B681B6822F01F
:1017680008021A607B681B681A687B681B6822F08D
:1017780001021A6013E0FFF79FFE0246BB68D31A06
:10178800052B0CD97B6820225A657B68032283F8D5
:1017980035207B68002283F83420032315E07B681A
:1017A8001B681B6803F00103002BE4D17B68DB6D29
:1017B8003F229A40FB689A607B68012283F83520B3
:1017C8007B68002283F83420002318461037BD4672
:1017D80080BD80B483B000AF78607B6893F8353003
:1017E800DBB2022B04D07B6880225A6501230CE00F
:1017F8007B68052283F835207B681B681A687B683C
:101808001B6822F001021A60002318460C37BD46F7
:101818005DF8047B7047000080B489B000AF786041
:10182800396000237B6100233B610023BB610023F7
:10183800FB616BE10122FB6902FA03F37B613B6800
:101848001B687A6913403B613A697B699A4240F0A8
:101858005A813B685B6803F00303012B05D03B68A2
:101868005B6803F00303022B30D17B689B68BB6184
:10187800FB695B00032202FA03F3DB43BA691340F6
:10188800BB613B68DA68FB695B0002FA03F3BA697B
:101898001343BB617B68BA699A607B685B68BB610C
:1018A8000122FB6902FA03F3DB43BA691340BB6107
:1018B8003B685B681B0903F00102FB6902FA03F34A
:1018C800BA691343BB617B68BA695A603B685B6855
:1018D80003F00303032B17D07B68DB68BB61FB694C
:1018E8005B00032202FA03F3DB43BA691340BB61CE
:1018F8003B689A68FB695B0002FA03F3BA69134311
:10190800BB617B68BA69DA603B685B6803F0030314
:10191800022B23D1FB69DA087B68083253F822309E
:10192800BB61FB6903F007039B000F2202FA03F374
:10193800DB43BA691340BB613B681A69FB6903F072
:1019480007039B0002FA03F3BA691343BB61FB69FF
:10195800DA087B680832B96943F822107B681B688B
:10196800BB61FB695B00032202FA03F3DB43BA693C
:101978001340BB613B685B6803F00302FB695B00D3
:1019880002FA03F3BA691343BB617B68BA691A6048
:101998003B685B6803F44033002B00F0B4800023FD
:1019A800FB60604B5B6C5F4A43F4804353645D4B60
:1019B8005B6C03F48043FB60FB685B4AFB699B0834
:1019C800023352F82330BB61FB6903F003039B0029
:1019D8000F2202FA03F3DB43BA691340BB617B6849
:1019E800524A93422BD07B68514A934225D07B6858
:1019F800504A93421FD07B684F4A934219D07B6864
:101A08004E4A934213D07B684D4A93420DD07B686F
:101A18004C4A934207D07B684B4A934201D1072333
:101A28000EE008230CE006230AE0052308E004235F
:101A380006E0032304E0022302E0012300E0002380
:101A4800FA6902F0030292009340BA691343BB613A
:101A58003549FB699B080233BA6941F823203B4B9F
:101A68009B68BB613B69DB43BA691340BB613B6858
:101A78005B6803F48013002B03D0BA693B691343F6
:101A8800BB61324ABB699360304BDB68BB613B6921
:101A9800DB43BA691340BB613B685B6803F400131E
:101AA800002B03D0BA693B691343BB61274ABB6962
:101AB800D360264B5B68BB613B69DB43BA69134063
:101AC800BB613B685B6803F40033002B03D0BA6941
:101AD8003B691343BB611D4ABB6953601B4B1B68C1
:101AE800BB613B69DB43BA691340BB613B685B6818
:101AF80003F48033002B03D0BA693B691343BB61FD
:101B0800124ABB691360FB690133FB61FB690F2B48
:101B18007FF690AE00BF00BF2437BD465DF8047B5A
:101B2800704700BF00380240003801400000024002
:101B38000004024000080240000C0240001002406D
:101B48000014024000180240001C0240003C014002
:101B580080B483B000AF78600B467B8013467B70FF
:101B68007B78002B03D07A887B689A6103E07B88B6
:101B78001A047B689A6100BF0C37BD465DF8047B88
:101B8800704780B485B000AF78600B467B807B6877
:101B98005B69FB607A88FB6813401A04FB68D943C9
:101BA8007B880B401A437B689A6100BF1437BD4697
:101BB8005DF8047B7047000080B584B000AF7860A2
:101BC8007B68002B01D101232BE17B6893F83D3022
:101BD800DBB2002B06D17B68002283F83C207868B2
:101BE800FFF766FA7B68242283F83D207B681B6830
:101BF8001A687B681B6822F001021A607B681B6800
:101C08001A687B681B6842F400421A607B681B688C
:101C18001A687B681B6822F400421A6000F040FDD5
:101C2800F8607B685B68814A934207D8FB68804A02
:101C3800934294BF01230023DBB206E0FB687D4A90
:101C4800934294BF01230023DBB2002B01D0012370
:101C5800E7E0FB68784AA2FB03239B0CBB607B6828
:101C68001B685B6823F03F017B681B68BA680A43FE
:101C78005A607B681B681B6A23F03F017B685B68BE
:101C88006A4A934202D8BB68013309E0BB684FF443
:101C9800967202FB03F3694AA2FB03239B090133F3
:101CA8007A6812680B4313627B681B68DB6923F44C
:101CB8004F4222F0FF027B685B685C498B4219D86F
:101CC800FB68591E7B685B685B00B1FBF3F3591C2A
:101CD80040F6FC730B40002B0AD0FB68591E7B684A
:101CE8005B685B00B1FBF3F30133C3F30B0351E013
:101CF80004234FE07B689B68002B11D1FB68581EBA
:101D08007B6859680B465B000B44B0FBF3F3013367
:101D1800C3F30B03002B0CBF01230023DBB212E03B
:101D2800FB68581E7B6859680B469B000B4499005A
:101D38000B44B0FBF3F30133C3F30B03002B0CBFCD
:101D480001230023DBB2002B01D0012322E07B68B2
:101D58009B68002B0ED1FB68581E7B6859680B46A0
:101D68005B000B44B0FBF3F30133C3F30B0343F401
:101D780000430FE0FB68581E7B6859680B469B00C0
:101D88000B4499000B44B0FBF3F30133C3F30B038B
:101D980043F44043796809681343CB617B681B6847
:101DA8001B6823F0C0017B68DA697B681B6A1A43E9
:101DB8007B681B680A431A607B681B689B6823F46E
:101DC800034323F0FF037A6811697A68D2681143E4
:101DD8007A6812680B4393607B681B68DB6823F0A2
:101DE800FF017B685A697B689B691A437B681B689B
:101DF8000A43DA607B681B681A687B681B6842F0D4
:101E080001021A607B6800221A647B68202283F82A
:101E18003D207B6800221A637B68002283F83E20FD
:101E2800002318461037BD4680BD00BFA0860100BC
:101E38007F841E00FF083D0083DE1B43D34D6210E4
:101E480080B586B000AF78607B68002B01D1012394
:101E580067E27B681B6803F00103002B75D0884B91
:101E68009B6803F00C03042B0CD0854B9B6803F094
:101E78000C03082B12D1824B5B6803F48003B3F583
:101E8800800F0BD17E4B1B6803F40033002B5BD013
:101E98007B685B68002B57D1012342E27B685B6853
:101EA800B3F5803F06D1764B1B68754A43F48033FF
:101EB80013601DE07B685B68B3F5A02F0CD1704BF5
:101EC8001B686F4A43F4802313606D4B1B686C4A90
:101ED80043F4803313600BE0694B1B68684A23F4B2
:101EE80080331360664B1B68654A23F480231360B4
:101EF8007B685B68002B13D0FFF7DEFA386108E0D7
:101F0800FFF7DAFA02463B69D31A642B01D9032397
:101F180007E25B4B1B6803F40033002BF0D014E09E
:101F2800FFF7CAFA386108E0FFF7C6FA02463B69CC
:101F3800D31A642B01D90323F3E1514B1B6803F433
:101F48000033002BF0D100E000BF7B681B6803F072
:101F58000203002B63D04A4B9B6803F00C03002B51
:101F68000BD0474B9B6803F00C03082B1CD1444B48
:101F78005B6803F48003002B16D1414B1B6803F008
:101F88000203002B05D07B68DB68012B01D00123FD
:101F9800C7E13B4B1B6823F0F8027B681B69DB0039
:101FA800374913430B603AE07B68DB68002B20D08D
:101FB800344B01221A60FFF77FFA386108E0FFF717
:101FC8007BFA02463B69D31A022B01D90323A8E105
:101FD8002B4B1B6803F00203002BF0D0284B1B6827
:101FE80023F0F8027B681B69DB00254913430B606B
:101FF80015E0244B00221A60FFF75EFA386108E00A
:10200800FFF75AFA02463B69D31A022B01D9032378
:1020180087E11B4B1B6803F00203002BF0D17B68A0
:102028001B6803F00803002B36D07B685B69002B24
:1020380016D0154B01221A60FFF73EFA386108E006
:10204800FFF73AFA02463B69D31A022B01D9032358
:1020580067E10B4B5B6F03F00203002BF0D01BE032
:10206800094B00221A60FFF727FA38610EE0FFF7E4
:1020780023FA02463B69D31A022B07D9032350E1FE
:102088000038024000004742800E4742884B5B6F91
:1020980003F00203002BEAD17B681B6803F00403FA
:1020A800002B00F097800023FB75814B1B6C03F01D
:1020B8008053002B0FD10023BB607D4B1B6C7C4AE7
:1020C80043F0805313647A4B1B6C03F08053BB605E
:1020D800BB680123FB75774B1B6803F48073002BE7
:1020E80018D1744B1B68734A43F480731360FFF76D
:1020F800E3F9386108E0FFF7DFF902463B69D31AD4
:10210800022B01D903230CE16A4B1B6803F480738B
:10211800002BF0D07B689B68012B06D1644B1B6FAA
:10212800634A43F0010313671CE07B689B68052B37
:102138000CD15F4B1B6F5E4A43F0040313675C4B83
:102148001B6F5B4A43F0010313670BE0584B1B6F8F
:10215800574A23F001031367554B1B6F544A23F06A
:10216800040313677B689B68002B15D0FFF7A4F95D
:1021780038610AE0FFF7A0F902463B69D31A41F239
:102188008832934201D90323CBE0494B1B6F03F0FC
:102198000203002BEED014E0FFF78EF938610AE055
:1021A800FFF78AF902463B69D31A41F28832934213
:1021B80001D90323B5E03E4B1B6F03F00203002B4C
:1021C800EED1FB7D012B05D1394B1B6C384A23F02E
:1021D800805313647B689B69002B00F0A180344B0B
:1021E8009B6803F00C03082B5CD07B689B69022B6F
:1021F80041D1314B00221A60FFF75EF9386108E0DF
:10220800FFF75AF902463B69D31A022B01D9032377
:1022180087E0274B1B6803F00073002BF0D17B6825
:10222800DA697B681B6A1A437B685B6A9B011A43FD
:102238007B689B6A5B08013B1B041A437B68DB6A6B
:102248001B061B4913434B601B4B01221A60FFF707
:1022580033F9386108E0FFF72FF902463B69D31AD2
:10226800022B01D903235CE0114B1B6803F00073B8
:10227800002BF0D054E0104B00221A60FFF71CF935
:10228800386108E0FFF718F902463B69D31A022BB8
:1022980001D9032345E0064B1B6803F00073002BAC
:1022A800F0D13DE07B689B69012B07D1012338E021
:1022B8000038024000700040600047421B4B5B68DA
:1022C800FB607B689B69012B28D0FB6803F48002C4
:1022D8007B68DB699A4221D1FB6803F03F027B6887
:1022E8001B6A9A421AD1FA6847F6C07313407A6893
:1022F800526A9201934211D1FB6803F440327B6821
:102308009B6A5B08013B1B049A4207D1FB6803F0F8
:1023180070627B68DB6A1B069A4201D0012300E0E9
:10232800002318461837BD4680BD00BF003802405C
:1023380080B584B000AF786039607B68002B01D12C
:102348000123CCE0684B1B6803F007033A689A4204
:102358000CD9654B3A68D2B21A70634B1B6803F00C
:1023680007033A689A4201D00123B8E07B681B68EA
:1023780003F00203002B20D07B681B6803F00403E2
:10238800002B05D0594B9B68584A43F4E05393609F
:102398007B681B6803F00803002B05D0534B9B6830
:1023A800524A43F460439360504B9B6823F0F00219
:1023B8007B689B684D4913438B607B681B6803F0FF
:1023C8000103002B44D07B685B68012B07D1474B86
:1023D8001B6803F40033002B19D101237FE07B68CD
:1023E8005B68022B03D07B685B68032B07D13F4BEC
:1023F8001B6803F00073002B09D101236FE03B4BEE
:102408001B6803F00203002B01D1012367E0374B5F
:102418009B6823F003027B685B68344913438B6035
:10242800FFF74AF8F8600AE0FFF746F80246FB684B
:10243800D31A41F28832934201D903234FE02B4B40
:102448009B6803F00C027B685B689B009A42EBD1A7
:10245800254B1B6803F007033A689A420CD2224BBB
:102468003A68D2B21A70204B1B6803F007033A6827
:102478009A4201D0012332E07B681B6803F0040311
:10248800002B08D0194B9B6823F4E0527B68DB686B
:10249800164913438B607B681B6803F00803002B05
:1024A80009D0124B9B6823F460427B681B69DB00F0
:1024B8000E4913438B6000F021F802460B4B9B68D2
:1024C8001B0903F00F030A49CB5C22FA03F3094AFC
:1024D8001360094B1B681846FEF7AAFF002318462D
:1024E8001037BD4680BD00BF003C024000380240A6
:1024F8000C37000800000020040000202DE9B04F30
:1025080090B000AF00237B630023FB6300233B6391
:102518000023BB63594B9B6803F00C03082B0DD0B9
:10252800082B00F2A180002B02D0042B03D09BE0E3
:10253800534BBB639BE0534BBB6398E04F4B5B68CB
:1025480003F03F037B634D4B5B6803F48003002B70
:1025580028D04A4B5B689B0900223B627A623B6A3F
:10256800C3F308000021474B03FB01F2002300FBE3
:1025780003F31344434AA0FB0212FA620A46BA6202
:10258800FA6A1344FB627B6B0022BB61FA61D7E9EC
:102598000623D7E90A01FDF713FE02460B46134648
:1025A800FB6353E0354B5B689B0900223B617A6112
:1025B8003B69C3F3080A4FF0000B52465B464FF0E5
:1025C80000004FF00001590141EAD2615001024672
:1025D8000B46B2EB0A0863EB0B094FF000024FF011
:1025E80000034FEA891343EA98634FEA8812B2EB73
:1025F800080463EB09054FF000024FF00003EB00FD
:1026080043EA5473E20014461D4614EB0A033B6088
:1026180045EB0B037B604FF000024FF00003D7E956
:10262800004529468B02214643EA915321468A02F6
:10263800104619467B6B0022BB60FA60D7E902237B
:10264800FDF7BEFD02460B461346FB630B4B5B686A
:102658001B0C03F0030301335B003B63FA6B3B6B1A
:10266800B2FBF3F3BB6302E0054BBB6300BFBB6B7C
:1026780018464037BD46BDE8B08F00BF003802405D
:102688000024F40040787D0180B400AF034B1B6840
:102698001846BD465DF8047B704700BF0000002067
:1026A80080B500AFFFF7F0FF0246054B9B689B0A19
:1026B80003F007030349CB5C22FA03F3184680BDF5
:1026C800003802401C37000880B500AFFFF7DCFF78
:1026D8000246054B9B685B0B03F007030349CB5C81
:1026E80022FA03F3184680BD003802401C37000860
:1026F80080B582B000AF78607B68002B01D10123E0
:1027080042E07B6893F84130DBB2002B06D17B684E
:10271800002283F840207868FEF712FD7B682422A7
:1027280083F841207B681B68DA687B681B6822F4A1
:102738000052DA60786800F011FD7B681B681A693E
:102748007B681B6822F490421A617B681B685A698F
:102758007B681B6822F02A025A617B681B68DA686A
:102768007B681B6842F40052DA607B6800225A6476
:102778007B68202283F841207B68202283F842204E
:102788007B6800225A63002318460837BD4680BD7F
:1027980080B485B000AFF860B9601346FB80FB6871
:1027A80093F84130DBB2202B21D1BB68002B02D03B
:1027B800FB88002B01D101231AE0FB68BA681A6272
:1027C800FB68FA889A84FB68FA88DA84FB68002236
:1027D8005A64FB68212283F84120FB681B68DA6889
:1027E800FB681B6842F08002DA60002300E00223E5
:1027F80018461437BD465DF8047B704780B584B031
:1028080000AFF860B9601346FB80FB6893F842306C
:10281800DBB2202B12D1BB68002B02D0FB88002B27
:1028280001D101230BE0FB6800221A63FB881A46DA
:10283800B968F86800F0BEFA034600E002231846BB
:102848001037BD4680BD000080B5BAB000AF7860D3
:102858007B681B681B68C7F8E4307B681B68DB680B
:10286800C7F8E0307B681B685B69C7F8DC30002379
:10287800C7F8D8300023C7F8D430D7F8E43003F0CD
:102888000F03C7F8D830D7F8D830002B0FD1D7F8B6
:10289800E43003F02003002B09D0D7F8E03003F030
:1028A8002003002B03D0786800F09AFB73E2D7F876
:1028B800D830002B00F0DE80D7F8DC3003F00103BD
:1028C800002B06D1D7F8E03003F49073002B00F00A
:1028D800D180D7F8E43003F00103002B0BD0D7F8F0
:1028E800E03003F48073002B05D07B685B6C43F009
:1028F80001027B685A64D7F8E43003F00403002B24
:102908000BD0D7F8DC3003F00103002B05D07B682F
:102918005B6C43F002027B685A64D7F8E43003F03A
:102928000203002B0BD0D7F8DC3003F00103002B97
:1029380005D07B685B6C43F004027B685A64D7F867
:10294800E43003F00803002B11D0D7F8E03003F08F
:102958002003002B05D1D7F8DC3003F00103002B4E
:1029680005D07B685B6C43F008027B685A647B681F
:102978005B6C002B00F00A82D7F8E43003F02003E8
:10298800002B08D0D7F8E03003F02003002B02D04A
:10299800786800F025FB7B681B685B6903F04003DF
:1029A800402B0CBF01230023DBB2C7F8D4307B686F
:1029B8005B6C03F00803002B03D1D7F8D430002B4D
:1029C8004FD0786800F030FA7B681B685B6903F0C9
:1029D8004003402B41D17B681B681433C7F89C30F7
:1029E800D7F89C3053E8003FC7F89830D7F89830AC
:1029F80023F04003C7F8D0307B681B681433D7F83E
:102A0800D020C7F8A820C7F8A430D7F8A410D7F862
:102A1800A82041E80023C7F8A030D7F8A030002B41
:102A2800D9D17B68DB6B002B13D07B68DB6B8A4AC0
:102A38001A657B68DB6B1846FEF7CBFE0346002B56
:102A480016D07B68DB6B1B6D7A68D26B1046984793
:102A58000EE07868FEF728F90AE07868FEF724F9AE
:102A680006E07868FEF720F97B6800225A648DE159
:102A780000BF8BE17B681B6B012B40F06781D7F8A7
:102A8800E43003F01003002B00F06081D7F8E03049
:102A980003F01003002B00F059810023BB607B6812
:102AA8001B681B68BB607B681B685B68BB60BB6896
:102AB8007B681B685B6903F04003402B40F0CE80C5
:102AC8007B68DB6B1B685B68A7F8BE30B7F8BE3065
:102AD800002B00F0A9807B689B8DB7F8BE209A4236
:102AE80080F0A2807B68B7F8BE20DA857B68DB6B54
:102AF800DB69B3F5807F00F088807B681B680C3346
:102B0800C7F88830D7F8883053E8003FC7F88430D2
:102B1800D7F8843023F48073C7F8B8307B681B6813
:102B28000C33D7F8B820C7F89420C7F89030D7F8F6
:102B38009010D7F8942041E80023C7F88C30D7F8D4
:102B48008C30002BD9D17B681B6814337B677B6F73
:102B580053E8003F3B673B6F23F00103C7F8B430ED
:102B68007B681B681433D7F8B420C7F88020FB674C
:102B7800F96FD7F8802041E80023BB67BB6F002BB3
:102B8800E1D17B681B6814333B663B6E53E8003F1A
:102B9800FB65FB6D23F04003C7F8B0307B681B680A
:102BA8001433D7F8B020FA66BB66B96EFA6E41E8FE
:102BB80000237B667B6E002BE3D17B68202283F8A1
:102BC80042207B6800221A637B681B680C33FB6415
:102BD800FB6C53E8003FBB64BB6C23F01003C7F8E1
:102BE800AC307B681B680C33D7F8AC20BA657B65C2
:102BF800796DBA6D41E800233B653B6D002BE3D14D
:102C08007B68DB6B1846FEF774FD7B6802225A630B
:102C18007B689A8D7B68DB8D9BB2D31A9BB2194671
:102C2800786800F0BBF8B3E07B689B8DB7F8BE20EE
:102C38009A4240F0AD807B68DB6BDB69B3F5807F3F
:102C480040F0A6807B6802225A637B689B8D1946F8
:102C5800786800F0A3F89BE0F72E00087B689A8D4F
:102C68007B68DB8D9BB2D31AA7F8CE307B68DB8DEF
:102C78009BB2002B00F08E80B7F8CE30002B00F00E
:102C880089807B681B680C33BB63BB6B53E8003FD0
:102C98007B637B6B23F49073C7F8C8307B681B6831
:102CA8000C33D7F8C8207A643B64396C7A6C41E8F5
:102CB8000023FB63FB6B002BE3D17B681B68143399
:102CC8007B627B6A53E8003F3B623B6A23F0010367
:102CD800C7F8C4307B681B681433D7F8C4203A633C
:102CE800FB62F96A3A6B41E80023BB62BB6A002BBE
:102CF800E3D17B68202283F842207B6800221A6394
:102D08007B681B680C333B613B6953E8003FFB6001
:102D1800FB6823F01003C7F8C0307B681B680C33CE
:102D2800D7F8C020FA61BB61B969FA6941E80023A4
:102D38007B617B69002BE3D17B6802225A63B7F879
:102D4800CE301946786800F029F823E0D7F8E43047
:102D580003F08003002B09D0D7F8E03003F080039C
:102D6800002B03D0786800F0D3F814E0D7F8E430EB
:102D780003F04003002B0ED0D7F8E03003F04003F7
:102D8800002B08D0786800F013F904E000BF02E0D7
:102D980000BF00E000BFE837BD4680BD80B483B007
:102DA80000AF78600B467B8000BF0C37BD465DF8EE
:102DB800047B704780B485B000AFF860B9601346F3
:102DC800FB80FB68BA689A62FB68FA889A85FB6898
:102DD800FA88DA85FB6800225A64FB68222283F8A5
:102DE8004220FB681B69002B07D0FB681B68DA6868
:102DF800FB681B6842F48072DA60FB681B685A69DA
:102E0800FB681B6842F001025A61FB681B68DA68BC
:102E1800FB681B6842F02002DA600023184614376A
:102E2800BD465DF8047B704780B495B000AF78600C
:102E38007B681B680C337B637B6B53E8003F3B6309
:102E48003B6B23F49073FB647B681B680C33FA6C50
:102E58003A64FB63F96B3A6C41E80023BB63BB6BD4
:102E6800002BE5D17B681B6814333B623B6A53E84F
:102E7800003FFB61FB6923F00103BB647B681B68AF
:102E88001433BA6CFA62BB62B96AFA6A41E8002381
:102E98007B627B6A002BE5D17B681B6B012B19D108
:102EA8007B681B680C33FB60FB6853E8003FBB6022
:102EB800BB6823F010037B647B681B680C337A6C57
:102EC800BA617B617969BA6941E800233B613B6972
:102ED800002BE5D17B68202283F842207B68002202
:102EE8001A6300BF5437BD465DF8047B704780B550
:102EF80084B000AF78607B689B6BFB60FB68002246
:102F0800DA85F868FDF7D0FE00BF1037BD4680BDF2
:102F180080B485B000AF78607B6893F84130DBB24D
:102F2800212B3ED17B689B68B3F5805F14D17B6809
:102F38001B69002B10D17B681B6AFB60FB681B8830
:102F48001A467B681B68C2F308025A607B681B6AD2
:102F58009A1C7B681A6208E07B681B6A591C7A68AD
:102F680011621A787B681B685A607B68DB8C9BB29D
:102F7800013B9BB27A681946D184002B0FD17B683C
:102F88001B68DA687B681B6822F08002DA607B685D
:102F98001B68DA687B681B6842F04002DA6000232D
:102FA80000E0022318461437BD465DF8047B7047DD
:102FB80080B582B000AF78607B681B68DA687B6890
:102FC8001B6822F04002DA607B68202283F84120E7
:102FD8007868FDF7E9FD002318460837BD4680BD2F
:102FE80080B58CB000AF78600023FB620023BB6221
:102FF8007B6893F84230DBB2222B40F0AA807B68D2
:103008009B68B3F5805F15D17B681B69002B11D1D4
:103018007B689B6ABB627B681B685B689BB2C3F377
:1030280008039AB2BB6A1A807B689B6A9A1C7B6801
:103038009A6224E07B689B6AFB627B689B68B3F5B5
:10304800805F07D07B689B68002B0AD17B681B696F
:10305800002B06D17B681B685B68DAB2FB6A1A70C2
:1030680008E07B681B685B68DBB203F07F03DAB2B9
:10307800FB6A1A707B689B6A5A1C7B689A627B6839
:10308800DB8D9BB2013B9BB27A681946D185002B38
:103098005DD17B681B68DA687B681B6822F02002B8
:1030A800DA607B681B68DA687B681B6822F48072C8
:1030B800DA607B681B685A697B681B6822F001022A
:1030C8005A617B68202283F842207B6800225A6379
:1030D8007B681B6B012B35D17B6800221A637B68E8
:1030E8001B680C337B617B6953E8003F3B613B699C
:1030F80023F010037B627B681B680C337A6A3A62A0
:10310800FB61F9693A6A41E80023BB61BB69002B9E
:10311800E5D17B681B681B6803F01003102B0AD1EC
:103128000023FB607B681B681B68FB607B681B686F
:103138005B68FB60FB687B689B8D19467868FFF7C6
:103148002DFE02E07868FDF775FD002302E00023FC
:1031580000E0022318463037BD4680BD2DE9B04F48
:10316800C0B000AFC7F8F400D7F8F4301B681B698B
:1031780023F44050D7F8F430D968D7F8F4301A68F7
:1031880040EA01031361D7F8F4309A68D7F8F430AD
:103198001B691A43D7F8F4305B691A43D7F8F4303F
:1031A800DB691343C7F8F830D7F8F4301B68DB68DD
:1031B80023F4164121F00C01D7F8F4301A68D7F837
:1031C800F8300B43D360D7F8F4301B685B6923F4FD
:1031D8004070D7F8F4309969D7F8F4301A6840EAA3
:1031E80001035361D7F8F4301A688F4B9A4205D01F
:1031F800D7F8F4301A688D4B9A4204D1FFF764FA75
:10320800C7F8FC0003E0FFF74BFAC7F8FC00D7F853
:10321800F430DB69B3F5004F40F00C81D7F8FC308F
:103228000022C7F8E830C7F8EC20D7E93A4522462B
:103238002B469118B9655B41FB65D7E916232146F2
:1032480012EB0108294643EB01094FF000024FF049
:1032580000034FEAC90343EA58734FEAC80290468D
:103268009946234618EB0303C7F8E0302B4649EB91
:103278000303C7F8E430D7F8F4305B680022C7F8D6
:10328800D830C7F8DC20D7E936120B46DB183B6587
:10329800134642EB03037B65D7E91423D7E93801CA
:1032A800FCF78EFF02460B46614BA3FB02235B092A
:1032B8001C01D7F8FC300022C7F8D030C7F8D4205A
:1032C800D7E9348942464B469118B9645B41FB649F
:1032D800D7E91223414612EB010A494643EB010B99
:1032E8004FF000024FF000034FEACB0343EA5A7352
:1032F8004FEACA0292469B4643461AEB0303C7F8B5
:10330800C8304B464BEB0303C7F8CC30D7F8F43042
:103318005B680022C7F8C030C7F8C420D7E930126C
:103328000B46DB183B64134642EB03037B64D7E987
:103338001023D7E93201FCF743FF02460B4611463A
:103348003B4BA3FB01235B09642202FB03F3CB1A6B
:10335800DB0003F13202364BA3FB02235B095B005F
:1033680003F4F8731C44D7F8FC300022C7F8B830CF
:10337800C7F8BC20D7E92E8942464B469118B96355
:103388005B41FB63D7E90E2341465118396349462F
:103398004B417B634FF000024FF00003D7E90CABC1
:1033A8005946CB00514643EA51735146CA0010466C
:1033B8001946034642469B18C7F8B0304B460A46A2
:1033C80042EB0303C7F8B430D7F8F4305B68002247
:1033D800C7F8A830C7F8AC20D7E92A120B46DB1883
:1033E800BB62134642EB0303FB62D7E90A23D7E922
:1033F8002C01FCF7E5FE02460B460D4BA3FB02131E
:103408005B09642101FB03F3D31ADB003233084A5A
:10341800A2FB03235B0903F00702D7F8F4301B680B
:1034280022449A6006E100BF0010014000140140E8
:103438001F85EB51D7F8FC300022C7F8A030C7F839
:10344800A420D7E9288942464B46911839625B4146
:103458007B62D7E9082341465418494643EB0105E6
:103468004FF000024FF00003EB0043EA5473E20010
:1034780014461D464346E318C7F898304B4645EBBB
:103488000303C7F89C30D7F8F4305B680022C7F80C
:103498009030C7F894204FF000024FF00003D7E9AE
:1034A800244529468B00214643EA917321468A0028
:1034B800D7E92601FCF784FE02460B46604BA3FBC6
:1034C80002235B091C01D7F8FC300022C7F88830BA
:1034D800C7F88C20D7E9228942464B469118B96132
:1034E8005B41FB61D7E906234146511839614946DA
:1034F8004B417B614FF000024FF00003D7E904AB6A
:103508005946CB00514643EA51735146CA0010460A
:103518001946034642469B18C7F880304B460A4670
:1035280042EB0303C7F88430D7F8F4305B68002215
:10353800BB67FA674FF000024FF00003D7E91E8916
:1035480049468B00414643EA917341468A00D7E9D0
:103558002001FCF735FE02460B461146384BA3FB0B
:1035680001235B09642202FB03F3CB1A1B013233EC
:10357800334AA2FB03235B0903F0F0031C44D7F88A
:10358800FC3000223B677A67D7E91C8942464B46E4
:103598009118B9605B41FB60D7E902234146511895
:1035A800396049464B417B604FF000024FF0000301
:1035B800D7E900AB5946CB00514643EA517351460F
:1035C800CA0010461946034642469B18BB664B463E
:1035D8000A4642EB0303FB66D7F8F4305B68002227
:1035E8003B667A664FF000024FF00003D7E918896E
:1035F80049468B00414643EA917341468A00D7E920
:103608001A01FCF7DDFD02460B460D4BA3FB021326
:103618005B09642101FB03F3D31A1B013233084A07
:10362800A2FB03235B0903F00F02D7F8F4301B68F1
:1036380022449A6000BF07F58077BD46BDE8B08F89
:103648001F85EB51884210B501EB020402D9844270
:10365800234607D8431EA14208D011F8012B03F8CE
:10366800012FF8E7024401468A4200D110BD13F841
:10367800014D02F8014DF7E702440346934200D199
:10368800704703F8011BF9E770B50D4D0D4C641B2D
:10369800A4100026A64209D10B4D0C4C00F026F8C8
:1036A800641BA4100026A64205D170BD55F8043B42
:1036B80098470136EEE755F8043B98470136F2E79C
:1036C8002C3700082C3700082C3700083037000842
:1036D8000A44914200F1FF3300D1704710B511F848
:1036E800014B03F8014F9142F9D110BDF8B500BF65
:1036F800F8BC08BC9E467047F8B500BFF8BC08BCCB
:043708009E46704722
:10370C000000000000000000010203040607080985
:08371C0000000000010203049B
:08372400D4CAFF7F0100000080
:04372C00AD010008E3
:043730008901000803
:0C3734000024F400100000000100000060
:04000005080013A13B
:00000001FF
