:020000040800F2
:1000000000500020A1170008BD160008C516000802
:10001000CD160008D5160008DD1600080000000007
:10002000000000000000000000000000E5160008CD
:10003000F116000800000000FD160008091700086E
:10004000E9170008E9170008E9170008E917000890
:10005000E9170008E9170008E9170008E917000880
:10006000E9170008E9170008E9170008E917000870
:10007000E9170008E9170008E9170008E917000860
:10008000E9170008E9170008E9170008E917000850
:10009000E9170008E9170008E9170008E917000840
:1000A000E9170008E9170008E9170008E917000830
:1000B000E9170008E9170008E9170008E917000820
:1000C000E9170008E9170008E9170008E917000810
:1000D000E917000815170008E9170008E9170008D4
:1000E000E9170008E9170008E917000800000000F8
:1000F0000000000000000000000000000000000000
:0C01000000000000000000005FF808F1A3
:10010C0010B5054C237833B9044B13B10448AFF345
:10011C0000800123237010BD64000020000000004B
:10012C007448000808B5034B1BB103490348AFF3EF
:10013C00008008BD00000000680000207448000822
:10014C0080F0004002E000BF81F0004142001FBF80
:10015C005FEA410392EA030F7FEA226C7FEA236C89
:10016C006AD04FEA1262D2EB1363C1BFD21841407E
:10017C0048404140B8BF5B42192B88BF704710F014
:10018C00004F40F4000020F07F4018BF404211F0B7
:10019C00004F41F4000121F07F4118BF494292EA1F
:1001AC00030F3FD0A2F1010241FA03FC10EB0C004B
:1001BC00C3F1200301FA03F100F0004302D54942D8
:1001CC0060EB4000B0F5000F13D3B0F1807F06D385
:1001DC0040084FEA310102F10102FE2A51D2B1F17D
:1001EC00004F40EBC25008BF20F0010040EA030072
:1001FC007047490040EB0000013A28BFB0F5000FF2
:10020C00EDD2B0FA80FCACF1080CB2EB0C0200FAA7
:10021C000CF0AABF00EBC25052421843BCBFD040F6
:10022C001843704792F0000F81F4000106BF80F470
:10023C0000000132013BB5E74FEA41037FEA226C33
:10024C0018BF7FEA236C21D092EA030F04D092F0FE
:10025C00000F08BF0846704790EA010F1CBF002032
:10026C00704712F07F4F04D1400028BF40F000408F
:10027C00704712F100723CBF00F50000704700F0AF
:10028C00004343F0FE4040F4000070477FEA2262D6
:10029C0016BF08467FEA23630146420206BF5FEAA7
:1002AC00412390EA010F40F4800070474FF00003A7
:1002BC0004E000BF10F0004348BF40425FEA000C6E
:1002CC0008BF704743F0964301464FF000001CE016
:1002DC0050EA010208BF70474FF000030AE000BF6C
:1002EC0050EA010208BF704711F0004302D54042AA
:1002FC0061EB41015FEA010C02BF8446014600201C
:10030C0043F0B64308BFA3F18053A3F50003BCFA36
:10031C008CF2083AA3EBC25310DB01FA02FC6344E3
:10032C0000FA02FCC2F12002BCF1004F20FA02F2EA
:10033C0043EB020008BF20F00100704702F12002DD
:10034C0001FA02FCC2F1200250EA4C0021FA02F23E
:10035C0043EB020008BF20EADC7070474FF0FF0C43
:10036C001CEAD0521EBF1CEAD15392EA0C0F93EA3E
:10037C000C0F6FD01A4480EA010C400218BF5FEAE0
:10038C0041211ED04FF0006343EA501043EA511153
:10039C00A0FB01310CF00040B1F5000F3EBF49004D
:1003AC0041EAD3715B0040EA010062F17F02FD2A51
:1003BC001DD8B3F1004F40EBC25008BF20F0010034
:1003CC00704790F0000F0CF0004C08BF49024CEA4B
:1003DC00502040EA51207F3AC2BFD2F1FF0340EADD
:1003EC00C250704740F400004FF00003013A5DDC4E
:1003FC0012F1190FDCBF00F000407047C2F100028F
:10040C00410021FA02F1C2F1200200FA02FC5FEA7B
:10041C00310040F1000053EA4C0308BF20EADC70C5
:10042C00704792F0000F00F0004C02BF400010F437
:10043C00000F013AF9D040EA0C0093F0000F01F0E4
:10044C00004C02BF490011F4000F013BF9D041EA06
:10045C000C018FE70CEAD15392EA0C0F18BF93EA08
:10046C000C0F0AD030F0004C18BF31F0004CD8D132
:10047C0080EA010000F00040704790F0000F17BFB9
:10048C0090F0004F084691F0000F91F0004F14D0FF
:10049C0092EA0C0F01D142020FD193EA0C0F03D157
:1004AC004B0218BF084608D180EA010000F000405A
:1004BC0040F0FE4040F40000704740F0FE4040F435
:1004CC00400070474FF0FF0C1CEAD0521EBF1CEAD4
:1004DC00D15392EA0C0F93EA0C0F69D0A2EB0302F2
:1004EC0080EA010C49024FEA402037D04FF080538C
:1004FC0043EA111143EA10130CF000408B4238BF51
:10050C005B0042F17D024FF4000C8B4224BF5B1A5E
:10051C0040EA0C00B3EB510F24BFA3EB510340EAAC
:10052C005C00B3EB910F24BFA3EB910340EA9C005A
:10053C00B3EBD10F24BFA3EBD10340EADC001B01CA
:10054C0018BF5FEA1C1CE0D1FD2A3FF650AF8B426E
:10055C0040EBC25008BF20F0010070470CF0004C7B
:10056C004CEA50207F32C2BFD2F1FF0340EAC250A6
:10057C00704740F400004FF00003013A37E792F067
:10058C00000F00F0004C02BF400010F4000F013AC5
:10059C00F9D040EA0C0093F0000F01F0004C02BFC0
:1005AC00490011F4000F013BF9D041EA0C0195E729
:1005BC000CEAD15392EA0C0F08D142027FF47DAFC2
:1005CC0093EA0C0F7FF470AF084676E793EA0C0FB2
:1005DC0004D14B023FF44CAF08466EE730F0004CB0
:1005EC0018BF31F0004CCAD130F000427FF45CAF40
:1005FC0031F000437FF43CAF5FE700BF4FF0FF3CAE
:10060C0006E000BF4FF0010C02E000BF4FF0010C00
:10061C004DF804CD4FEA40024FEA41037FEA226CC9
:10062C0018BF7FEA236C11D001B052EA530C18BFEB
:10063C0090EA010F58BFB2EB030088BFC81738BF50
:10064C006FEAE17018BF40F0010070477FEA226C3E
:10065C0002D15FEA402C05D17FEA236CE4D15FEA3A
:10066C00412CE1D05DF8040B704700BF844608466E
:10067C006146FFE70FB5FFF7C9FF002848BF10F12F
:10068C00000F0FBD4DF808EDFFF7F4FF0CBF012074
:10069C0000205DF808FB00BF4DF808EDFFF7EAFFFE
:1006AC0034BF012000205DF808FB00BF4DF808EDB9
:1006BC00FFF7E0FF94BF012000205DF808FB00BFAE
:1006CC004DF808EDFFF7D2FF94BF012000205DF834
:1006DC0008FB00BF4DF808EDFFF7C8FF34BF012041
:1006EC0000205DF808FB00BF42000ED2B2F1FE4FB5
:1006FC000BD34FF09E03B3EB126209D44FEA0023E5
:10070C0043F0004323FA02F070474FF000007047AB
:10071C0012F1610F01D1420202D14FF0FF3070474C
:10072C004FF00000704700BF90B59DB002AF01F0D4
:10073C0057F800F0ADF900F059FA00F025FA00F086
:10074C00E3F90122BE49BF4802F070FE4AF6AA2026
:10075C0000F066FBC82001F0A5F800F00BFC64204B
:10076C0001F0A0F800210A2000F06CFD07F1200335
:10077C000522B549184603F0C7FB07F120030122F7
:10078C00B249184600F0F2FD00F0B8FC322001F03E
:10079C0089F80F210A2000F055FD0122AB49AC4825
:1007AC0000F0E4FD00F0AAFC322001F07BF82321DC
:1007BC000A2000F047FD0122A449A64800F0D6FD0E
:1007CC0000F09CFC322001F06DF83721052000F080
:1007DC0039FD01229D49A04800F0C8FD00F08EFCB7
:1007EC00322001F05FF8642001F05CF89B4B1B7821
:1007FC00DBB2002BFAD09A4B9B781BB21B021AB2BD
:10080C00974BDB781BB213431BB2A7F86630B7F8D3
:10081C006630944AA2FB0323DB08A7F85E30B7F8D6
:10082C006620904BA3FB0213D9080B469B000B448C
:10083C005B00D31AA7F85C30B7F85E20B7F85C30D1
:10084C00384600931346884A202103F027FB0F21DA
:10085C000A2000F0F7FCB7F8662007F12003834963
:10086C00184603F051FB07F1200301227749184683
:10087C0000F07CFD23210A2000F0E4FCB7F8663080
:10088C00A7F85A30B7F95A301846FFF713FD03464C
:10089C0077491846FFF716FE034676491846FFF7C8
:1008AC0053FC03463B664FF00001386EFFF708FF20
:1008BC000346002B06D07049386EFFF747FC034601
:1008CC003B6605E06C49386EFFF73EFC03463B6621
:1008DC004FF00001386EFFF7DFFE0346002B3BD0D4
:1008EC003B6E83F000433B65386DFFF7FDFE03461E
:1008FC00A7F84E305E49386DFFF730FD03461C46B5
:10090C00B7F84E2013469B0013445B001846FFF7C4
:10091C00D1FC034619462046FFF716FC0346184641
:10092C00FFF7E2FE0346A7F84C30B7F84C204D4BCE
:10093C00A3FB0213D9080B469B000B445B00D31A94
:10094C00A7F84C30B7F84E20B7F84C3007F1200020
:10095C004A4903F0D9FA36E0386EFFF7C5FE034674
:10096C00A7F858304249386EFFF7F8FC03461C468E
:10097C00B7F8582013469B0013445B001846FFF74A
:10098C0099FC034619462046FFF7DEFB0346184642
:10099C00FFF7AAFE0346A7F85630B7F85620314B9E
:1009AC00A3FB0213D9080B469B000B445B00D31A24
:1009BC00A7F85630B7F85820B7F8563007F1200092
:1009CC002F4903F0A1FA07F1200301221F49184611
:1009DC0000F0CCFC00F092FB4FF40051294801F0E0
:1009EC00E1FAB7F86630B3F5616F02D90023A7F8C6
:1009FC006630B7F866301B04BB64BB6C224AA2FBA2
:100A0C000323DB0AA7F84630B7F84630184600F047
:100A1C009EFA0346A7F84430B7F84430184600F065
:100A2C0087FA0346A7F84230B7F84230184600F070
:100A3C00F7F9164B00221A70084B00221A70D5E6F3
:100A4C00800000205C0100208C4800080000002081
:100A5C0098480008A8480008B8480008050100207C
:100A6C0084000020CDCCCCCCC4480008CC48000875
:100A7C000000204166E63343CDCC4C3DDC480008F9
:100A8C00F048000800100140C5B3A29104010020F9
:100A9C0080B590B000AF07F118032822002118464A
:100AAC0003F054FA3B1D00221A605A609A60DA6017
:100ABC001A610223BB610123BB621023FB6200237A
:100ACC007B6307F11803184602F050F80346002B1D
:100ADC0001D000F049FA0F237B600023BB60002398
:100AEC00FB6000233B6100237B613B1D002118460A
:100AFC0002F0BEFA0346002B01D000F035FA00BF1D
:100B0C004037BD4680BD000080B582B000AF1A4BA7
:100B1C00DB69194A43F40013D361174BDB6903F407
:100B2C0000137B607B68154B154A1A60134B154AF2
:100B3C005A60124B00229A60104B0022DA600F4B65
:100B4C004FF480421A610D4B00225A610B4B00226C
:100B5C009A610A4B0022DA61084B00221A6207489C
:100B6C0001F03AFA0346002B01D000F0FDF900BF6A
:100B7C000837BD4680BD00BF0010024008010020B0
:100B8C0000540040801A060080B500AF154B164A81
:100B9C001A60144B4FF4E1325A60124B00229A60E7
:100BAC00104B0022DA600F4B00221A610D4B0C2205
:100BBC005A610C4B00229A610A4B0022DA610948F7
:100BCC0002F0E4FB0346002B01D000F0CDF900222B
:100BDC000021252000F061FF252000F07AFF00BFE6
:100BEC0080BD00BF5C0100200038014080B58AB098
:100BFC0000AF07F1100300221A605A609A60DA60A5
:100C0C00594B9B69584A43F010039361564B9B69AF
:100C1C0003F01003FB60FB68534B9B69524A43F093
:100C2C0004039361504B9B6903F00403BB60BB68E6
:100C3C004D4B9B694C4A43F0080393614A4B9B69AB
:100C4C0003F008037B607B68474B9B69464A43F083
:100C5C0001039361444B9B6903F001033B603B68C8
:100C6C00424B5B687B627B6A43F0E0637B627B6A2E
:100C7C0043F004037B623D4A7B6A53603B4B5B68E9
:100C8C003B623B6A43F0E0633B623B6A43F0020326
:100C9C003B62364A3B6A536040233B6102237B61D3
:100CAC000323FB6107F110031946314800F0DEFF06
:100CBC0080233B6100237B610023BB6107F11003A0
:100CCC0019462B4800F0D2FF4FF440733B611223BE
:100CDC007B610323FB6107F110031946244800F0E4
:100CEC00C5FF00224FF48041224801F043F9002255
:100CFC0049F6FF71204801F03DF900224FF44061A4
:100D0C001B4801F037F94FF480433B6101237B61B1
:100D1C000023BB610223FB6107F110031946154840
:100D2C0000F0A4FF49F6FF733B6101237B610023B4
:100D3C00BB610223FB6107F1100319460E4800F05A
:100D4C0095FF4FF440633B6101237B610023BB6142
:100D5C000223FB6107F110031946054800F086FFDA
:100D6C0000BF2837BD4680BD001002400000014086
:100D7C00000C0140001001400008014080B485B017
:100D8C0000AF0346FB800023FB600023BB60FB88A5
:100D9C00DB431A041F4B1340FA681343FB60FB88B8
:100DAC00C3F30C03FA681343FB60B7F90630002B4E
:100DBC0004DAFB6843F40043FB6003E0FB6843F098
:100DCC000043FB60FB8803F40053002B04D0BB688A
:100DDC0043F48063BB6003E0BB6843F08063BB609B
:100DEC00FB8803F48043002B04D0BB6843F40063FE
:100DFC00BB6003E0BB6843F00063BB60064AFB6862
:100E0C001361064ABB68136100BF1437BD4680BC32
:100E1C00704700BF0000FF1F00080140000C01409C
:100E2C0080B582B000AF0346FB8001224FF48041B5
:100E3C00094801F09FF8FB881846FFF79FFF142024
:100E4C0000F030FD00224FF48041034801F092F88D
:100E5C0000BF0837BD4680BD0010014080B582B090
:100E6C0000AF78607B681B682B4A93424FD12B4BA9
:100E7C001B78DBB2002B45D1294B1B78002B0FD1F3
:100E8C00284B1B78BB2B3DD1254B1B785A1CD1B260
:100E9C00234A11701A46234B1978234B995431E08D
:100EAC001F4B1B78012B13D11E4B1B78052B0BD121
:100EBC001B4B1B785A1CD1B2194A11701A46194B8C
:100ECC001978194B99541DE0154B00221A7019E032
:100EDC00134B1B78012B15D9114B1B78032B11D8F5
:100EEC000F4B1B785A1CD1B20D4A11701A460D4B80
:100EFC0019780D4B99540A4B1B78042B02D1074BD4
:100F0C0001221A7001220749084802F08FFA00BF2B
:100F1C000837BD4680BD00BF0038014005010020E8
:100F2C000401002080000020840000205C010020CF
:100F3C0080B483B000AF0346FB80FB88A3F5AA43C3
:100F4C00563B9BB218460C37BD4680BC704780B4EC
:100F5C0083B000AF0346FB80FB885B429BB2184614
:100F6C000C37BD4680BC704780B400AF72B600BF72
:100F7C0000BFFDE780B582B000AF00F01DFA44F66B
:100F8C002063012278215B4801F068FA0346002BAC
:100F9C0001D00023A9E040F6C4137B6002E07B681B
:100FAC00013B7B607B68002BF9D1AE2200217820BD
:100FBC0000F07CFA20220021782000F077FA102231
:100FCC000021782000F072FAB0220021782000F085
:100FDC006DFAC8220021782000F068FA0022002166
:100FEC00782000F063FA10220021782000F05EFADD
:100FFC0040220021782000F059FA8122002178202B
:10100C0000F054FAFF220021782000F04FFAA122C0
:10101C000021782000F04AFAA6220021782000F066
:10102C0045FAA8220021782000F040FA3F22002146
:10103C00782000F03BFAA4220021782000F036FA48
:10104C00D3220021782000F031FA002200217820F0
:10105C0000F02CFAD5220021782000F027FAF0229B
:10106C000021782000F022FAD9220021782000F00B
:10107C001DFA22220021782000F018FADA22002131
:10108C00782000F013FA12220021782000F00EFADA
:10109C00DB220021782000F009FA202200217820A0
:1010AC0000F004FA8D220021782000F0FFF91422C0
:1010BC000021782000F0FAF9AF220021782000F00E
:1010CC00F5F92E220021782000F0F0F9002000F034
:1010DC0043F800F013F8084B00221A80064B00224C
:1010EC005A80054B01225A71012318460837BD4618
:1010FC0080BD00BF08010020A405002080B582B08F
:10110C0000AF0023FB711DE0FB79503BDBB21A46AC
:10111C000021782000F0CAF900220021782000F08C
:10112C00C5F910220021782000F0C0F9FB79DB0111
:10113C00084A1A4480234021782000F051F9FB79A9
:10114C000133FB71FB79072BDED900BF00BF0837D9
:10115C00BD4680BDA401002080B582B000AF03461F
:10116C00FB71FB79002B01D1002300E0FF234FF42E
:10117C0080621946034802F0E9FE00BF0837BD46FD
:10118C0080BD00BFA401002080B483B000AF034633
:10119C00FB800B46BB801346FB70FB887F2B48D82B
:1011AC00BB883F2B45D8254B1B79002B06D0FB78F1
:1011BC00002B0CBF01230023DBB2FB70FB78012B4F
:1011CC001AD1FA88BB88DB0898B20346DB011344BA
:1011DC001B4AD35C5AB2BB8803F00703012101FA06
:1011EC0003F35BB2134359B2FA880346DB01134491
:1011FC00C9B2134AD1541DE0FA88BB88DB0898B2F7
:10120C000346DB0113440E4AD35C5AB2BB8803F08D
:10121C000703012101FA03F35BB2DB435BB213401A
:10122C0059B2FA880346DB011344C9B2044AD154BB
:10123C0000E000BF0C37BD4680BC7047A405002001
:10124C00A401002080B483B000AF03460A46FB80A3
:10125C001346BB80054AFB881380044ABB88538025
:10126C0000BF0C37BD4680BC704700BFA4050020F2
:10127C0080B586B000AF03463960FB711346BB7175
:10128C00394B1B881A463B681B7813447F2B07DCB1
:10129C00354B5B881A463B685B7813443F2B01DD6A
:1012AC0000235DE000237B614BE03B685A68FB79CF
:1012BC00203B3968497801FB03F319467B690B44E1
:1012CC005B0013441B88FB6000233B6130E0FA6831
:1012DC003B6902FA03F303F40043002B10D0224BBA
:1012EC001A883B699BB2134498B21F4B5A887B698E
:1012FC009BB213449BB2BA791946FFF745FF14E031
:10130C00194B1A883B699BB2134498B2164B5A88F6
:10131C007B699BB2134499B2BB79002B0CBF0123A0
:10132C000023DBB21A46FFF72FFF3B6901333B6109
:10133C003B681B781A463B699342C8D37B690133DF
:10134C007B613B685B781A467B699342ADD3064B55
:10135C001B883A68127813449AB2034B1A80FB79B3
:10136C0018461837BD4680BDA405002080B584B052
:10137C0000AFF860B9601346FB7112E0FB681B7894
:10138C00FA79B9681846FFF773FF03461A46FB68EB
:10139C001B789A4202D0FB681B7808E0FB6801338B
:1013AC00FB60FB681B78002BE8D1FB681B781846A8
:1013BC001037BD4680BD000080B483B000AF074B32
:1013CC007B6002E07B68013B7B607B68002BF9D182
:1013DC0000BF00BF0C37BD4680BC704790D00300E7
:1013EC0090B5C7B002AF0446084607F58871A1F561
:1013FC0088710A60194607F58873A3F2091322460F
:10140C001A7007F58873A3F5857302461A7007F5F1
:10141C008873A3F586730A461A8007F58873A3F5BB
:10142C00827307F58872A2F5857212781A70002300
:10143C0087F80F3115E097F80F3107F58872A2F590
:10144C00887212681A4497F80F310133117807F536
:10145C008872A2F58272D15497F80F31013387F854
:10146C000F3197F80F319BB207F58872A2F586728F
:10147C0012889A42DFD807F58873A3F209131B78F8
:10148C0099B207F58873A3F586731B8801339BB259
:10149C0007F10C020A200090034800F0E1FE00BFA7
:1014AC0007F58A77BD4690BD0801002080B586B04F
:1014BC0002AF0346FB710B46BB7113467B71BB79C4
:1014CC003B737B797B73FB7999B207F10C020A238E
:1014DC0000930223034800F0C3FE00BF1037BD4643
:1014EC0080BD00BF0801002080B485B000AF154B53
:1014FC009B69144A43F001039361124B9B6903F0FF
:10150C000103BB60BB680F4BDB690E4A43F0805391
:10151C00D3610C4BDB6903F080537B607B680A4B17
:10152C005B68FB60FB6823F0E063FB60FB6843F0E7
:10153C000073FB60044AFB68536000BF1437BD4660
:10154C0080BC7047001002400000014080B58AB09A
:10155C0000AF786007F1140300221A605A609A6099
:10156C00DA607B681B68264A934245D1254B9B6900
:10157C00244A43F480439361224B9B6903F48043D8
:10158C003B613B691F4B9B691E4A43F00803936107
:10159C001C4B9B6903F00803FB60FB6840237B61D9
:1015AC000223BB6103233B6207F11403194616485F
:1015BC0000F05CFB80237B610023BB610023FB619B
:1015CC0007F114031946104800F050FB0F4B5B68F1
:1015DC007B627B6A43F0E0637B627B6A43F00403CB
:1015EC007B620A4A7B6A536000220021252000F0AE
:1015FC0054FA252000F06DFA00BF2837BD4680BD97
:10160C000038014000100240000C01400000014075
:10161C0080B58AB000AF786007F1140300221A601D
:10162C005A609A60DA607B681B681D4A934232D11B
:10163C001C4B9B691B4A43F008039361194B9B6934
:10164C0003F008033B613B694FF440737B61122349
:10165C00BB6103233B6207F114031946124800F0E7
:10166C0005FB124B5B687B627B6A43F0E0637B6239
:10167C007B6A43F002037B620C4A7B6A5360094B22
:10168C00DB69084A43F40013D361064BDB6903F4AE
:10169C000013FB60FB6800BF2837BD4680BD00BF50
:1016AC000054004000100240000C014000000140BA
:1016BC0080B400AF00BFFDE780B400AF00BFFDE712
:1016CC0080B400AF00BFFDE780B400AF00BFFDE702
:1016DC0080B400AF00BFFDE780B400AF00BFBD46D3
:1016EC0080BC704780B400AF00BFBD4680BC704763
:1016FC0080B400AF00BFBD4680BC704780B500AF62
:10170C0000F0B4F800BF80BD80B500AF024801F016
:10171C00B3FE00BF80BD00BF5C01002080B586B069
:10172C0000AF7860144A154BD31A7B617B693B611F
:10173C00134B1B68002B02D1114B124A1A60104B31
:10174C001A687B6813443A699A4207D202F006FC85
:10175C0003460C221A604FF0FF3309E0084B1B685C
:10176C00FB60074B1A687B681344054A1360FB68DF
:10177C0018461837BD4680BD0050002000040000FC
:10178C00AC0500200007002080B400AF00BFBD46B0
:10179C0080BC7047FFF7F8FF0B480C490C4A00233C
:1017AC0002E0D458C4500433C4188C42F9D3094A0B
:1017BC00094C002301E013600432A242FBD302F077
:1017CC00D3FBFEF7B1FF704700000020640000203F
:1017DC00D450000864000020FC060020FEE7000046
:1017EC0080B500AF084B1B68074A43F01003136029
:1017FC00032000F047F90F2000F008F8FFF774FE03
:10180C000023184680BD00BF0020024080B582B086
:10181C0000AF7860124B1A68124B1B7819464FF4C4
:10182C007A73B3FBF1F3B2FBF3F3184600F05FF9F4
:10183C000346002B01D001230EE07B680F2B0AD846
:10184C00002279684FF0FF3000F027F9064A7B68D8
:10185C001360002300E0012318460837BD4680BD05
:10186C0008000020100000200C00002080B400AF05
:10187C00054B1B781A46054B1B681344034A13602F
:10188C0000BFBD4680BC704710000020B005002092
:10189C0080B400AF024B1B681846BD4680BC704735
:1018AC00B005002080B584B000AF7860FFF7F0FF82
:1018BC00B8607B68FB60FB68B3F1FF3F05D00A4B57
:1018CC001B781A46FB681344FB6000BFFFF7E0FF70
:1018DC000246BB68D31AFA689A42F7D800BF00BF19
:1018EC001037BD4680BD00BF1000002080B485B00D
:1018FC0000AF78607B6803F00703FB600C4BDB6880
:10190C00BB60BA684FF6FF031340BB60FB681A025A
:10191C00BB68134343F0BF6343F40033BB60044A1A
:10192C00BB68D36000BF1437BD4680BC704700BF96
:10193C0000ED00E080B400AF044BDB681B0A03F041
:10194C0007031846BD4680BC704700BF00ED00E0A1
:10195C0080B483B000AF0346FB7197F90730002BBE
:10196C000BDBFB7903F01F02064997F907305B0983
:10197C00012000FA02F241F8232000BF0C37BD46CB
:10198C0080BC704700E100E080B483B000AF034638
:10199C003960FB7197F90730002B0ADB3B68DAB230
:1019AC000C4997F907301201D2B20B4483F800238B
:1019BC000AE03B68DAB20849FB7903F00F03043BF9
:1019CC001201D2B20B441A7600BF0C37BD4680BC54
:1019DC00704700BF00E100E000ED00E080B489B08A
:1019EC0000AFF860B9607A60FB6803F00703FB6135
:1019FC00FB69C3F10703042B28BF0423BB61FB69FC
:101A0C000433062B02D9FB69033B00E000237B6106
:101A1C004FF0FF32BB6902FA03F3DA43BB681A409A
:101A2C007B699A404FF0FF317B6901FA03F3D9438C
:101A3C007B680B40134318462437BD4680BC704767
:101A4C0080B582B000AF78607B68013BB3F1807FDA
:101A5C0001D301230FE00A4A7B68013B53600F213D
:101A6C004FF0FF30FFF790FF054B00229A60044BBC
:101A7C0007221A60002318460837BD4680BD00BFF8
:101A8C0010E000E080B582B000AF78607868FFF7B6
:101A9C002DFF00BF0837BD4680BD80B586B000AFB6
:101AAC000346B9607A60FB7300237B61FFF742FF4A
:101ABC0078617A68B9687869FFF790FF024697F900
:101ACC000F3011461846FFF75FFF00BF1837BD46B1
:101ADC0080BD80B582B000AF0346FB7197F907302B
:101AEC001846FFF735FF00BF0837BD4680BD80B5EF
:101AFC0082B000AF78607868FFF7A2FF0346184603
:101B0C000837BD4680BD80B485B000AF7860002337
:101B1C00FB737B6893F82130DBB2022B08D07B6817
:101B2C0004229A637B68002283F82020012320E0A2
:101B3C007B681B681A687B681B6822F00E021A60AF
:101B4C007B681B681A687B681B6822F001021A60AC
:101B5C007B681A6C7B68DB6B012101FA02F25A601C
:101B6C007B68012283F821207B68002283F82020E7
:101B7C00FB7B18461437BD4680BC704780B584B0DB
:101B8C0000AF78600023FB737B6893F82130DBB2E5
:101B9C00022B05D07B6804229A630123FB7351E06E
:101BAC007B681B681A687B681B6822F00E021A603F
:101BBC007B681B681A687B681B6822F001021A603C
:101BCC007B681B68224A934229D07B681B68214A98
:101BDC00934222D07B681B681F4A93421AD07B68C1
:101BEC001B681E4A934212D07B681B681C4A9342A6
:101BFC000AD07B681B681B4A934202D14FF48013B6
:101C0C000EE04FF080730BE04FF4803308E04FF49C
:101C1C00805305E04FF4807302E0102300E00123B1
:101C2C00114A53607B68012283F821207B680022D3
:101C3C0083F820207B685B6B002B03D07B685B6B8D
:101C4C0078689847FB7B18461037BD4680BD00BFAF
:101C5C00080002401C0002403000024044000240D8
:101C6C00580002406C0002400000024080B48BB06F
:101C7C0000AF7860396000237B6200233B6269E12E
:101C8C0001227B6A02FA03F3FB613B681B68FA6969
:101C9C001340BB61BA69FB699A4240F058813B68BA
:101CAC005B689A4A93425ED0984A934275D8984A98
:101CBC00934258D0964A93426FD8964A934252D048
:101CCC00944A934269D8944A93424CD0924A934294
:101CDC0063D8924A934246D0904A93425DD8122BD5
:101CEC002AD8122B59D801A252F823F0731D0008E0
:101CFC004D1D00085F1D0008A11D0008A71D000850
:101D0C00A71D0008A71D0008A71D0008A71D000897
:101D1C00A71D0008A71D0008A71D0008A71D000887
:101D2C00A71D0008A71D0008A71D0008A71D000877
:101D3C00551D0008691D0008794A934213D02CE008
:101D4C003B68DB683B6229E03B68DB6804333B6241
:101D5C0024E03B68DB6808333B621FE03B68DB68D0
:101D6C000C333B621AE03B689B68002B02D10423C6
:101D7C003B6213E03B689B68012B05D108233B6257
:101D8C007B68FA691A6109E008233B627B68FA698F
:101D9C005A6103E000233B6200E000BFBB69FF2BEC
:101DAC0001D87B6801E07B6804337B61BB69FF2B46
:101DBC0002D87B6A9B0002E07B6A083B9B003B617C
:101DCC007B691A680F213B6901FA03F3DB431A4064
:101DDC00396A3B6901FA03F31A437B691A603B6861
:101DEC005B6803F08053002B00F0B1804D4B9B6976
:101DFC004C4A43F0010393614A4B9B6903F0010386
:101E0C00BB60BB68484A7B6A9B08023352F823309C
:101E1C00FB607B6A03F003039B000F2202FA03F3BF
:101E2C00DB43FA681340FB607B68404A934213D053
:101E3C007B683F4A93420DD07B683E4A934207D061
:101E4C007B683D4A934201D1032306E0042304E05E
:101E5C00022302E0012300E000237A6A02F003026D
:101E6C0092009340FA681343FB602F497B6A9B08EE
:101E7C000233FA6841F823203B685B6803F4801353
:101E8C00002B06D02D4B9A682C49BB6913438B60F1
:101E9C0006E02A4B9A68BB69DB43284913408B60E8
:101EAC003B685B6803F40013002B06D0234BDA6805
:101EBC002249BB691343CB6006E0204BDA68BB694F
:101ECC00DB431E491340CB603B685B6803F4003373
:101EDC00002B06D0194B5A681849BB6913434B6049
:101EEC0006E0164B5A68BB69DB43144913404B6040
:101EFC003B685B6803F48033002B21D00F4B1A68CE
:101F0C000E49BB6913430B6021E000BF0000321087
:101F1C0000003110000022100000211000001210EF
:101F2C0000001110001002400000014000080140A8
:101F3C00000C01400010014000140140000401405D
:101F4C000B4B1A68BB69DB43094913400B607B6A76
:101F5C0001337B623B681A687B6A22FA03F3002B1D
:101F6C007FF48EAE00BF00BF2C37BD4680BC7047DF
:101F7C000004014080B483B000AF78600B467B80D6
:101F8C0013467B707B78002B03D07A887B681A61B0
:101F9C0003E07B881A047B681A6100BF0C37BD46CE
:101FAC0080BC704780B485B000AF78600B467B80F6
:101FBC007B68DB68FB607A88FB6813401A04FB685B
:101FCC00D9437B880B401A437B681A6100BF1437D6
:101FDC00BD4680BC7047000080B584B000AF78600F
:101FEC007B68002B01D101232BE17B6893F83D30FA
:101FFC00DBB2002B06D17B68002283F83C2078688A
:10200C00FFF706FB7B68242283F83D207B681B6866
:10201C001A687B681B6822F001021A607B681B68D7
:10202C001A687B681B6842F400421A607B681B6864
:10203C001A687B681B6822F400421A6001F060F990
:10204C00F8607B685B68814A934207D8FB68804ADA
:10205C00934294BF01230023DBB206E0FB687D4A68
:10206C00934294BF01230023DBB2002B01D0012348
:10207C00E7E0FB68784AA2FB03239B0CBB607B6800
:10208C001B685B6823F03F017B681B68BA680A43D6
:10209C005A607B681B681B6A23F03F017B685B6896
:1020AC006A4A934202D8BB68013309E0BB684FF41B
:1020BC00967202FB03F3694AA2FB03239B090133CB
:1020CC007A6812680B4313627B681B68DB6923F424
:1020DC004F4222F0FF027B685B685C498B4219D847
:1020EC00FB68591E7B685B685B00B1FBF3F3591C02
:1020FC0040F6FC730B40002B0AD0FB68591E7B6822
:10210C005B685B00B1FBF3F30133C3F30B0351E0EA
:10211C0004234FE07B689B68002B11D1FB68581E91
:10212C007B6859680B465B000B44B0FBF3F301333F
:10213C00C3F30B03002B0CBF01230023DBB212E013
:10214C00FB68581E7B6859680B469B000B44990032
:10215C000B44B0FBF3F30133C3F30B03002B0CBFA5
:10216C0001230023DBB2002B01D0012322E07B688A
:10217C009B68002B0ED1FB68581E7B6859680B4678
:10218C005B000B44B0FBF3F30133C3F30B0343F4D9
:10219C0000430FE0FB68581E7B6859680B469B0098
:1021AC000B4499000B44B0FBF3F30133C3F30B0363
:1021BC0043F44043796809681343CB617B681B681F
:1021CC001B6823F0C0017B68DA697B681B6A1A43C1
:1021DC007B681B680A431A607B681B689B6823F446
:1021EC00034323F0FF037A6811697A68D2681143BC
:1021FC007A6812680B4393607B681B68DB6823F07A
:10220C00FF017B685A697B689B691A437B681B6872
:10221C000A43DA607B681B681A687B681B6842F0AB
:10222C0001021A607B6800221A647B68202283F802
:10223C003D207B6800221A637B68002283F83E20D5
:10224C00002318461037BD4680BD00BFA086010094
:10225C007F841E00FF083D0083DE1B43D34D6210BC
:10226C0080B588B002AFF8607A601A460B467B8165
:10227C0013463B81FFF70CFB7861FB6893F83D300C
:10228C00DBB2202B40F0E0807B6900931923012204
:10229C007049F86800F092FA0346002B01D0022333
:1022AC00D3E0FB6893F83C30012B01D10223CCE046
:1022BC00FB68012283F83C20FB681B681B6803F059
:1022CC000103012B07D0FB681B681A68FB681B68AD
:1022DC0042F001021A60FB681B681A68FB681B68F5
:1022EC0022F400621A60FB68212283F83D20FB680F
:1022FC00102283F83E20FB6800221A64FB687A687F
:10230C005A62FB683A895A85FB685B8D9AB2FB6806
:10231C001A85FB68504ADA6279897B693A6AF868EF
:10232C0000F0CAF90346002B01D001238DE00023F5
:10233C003B61FB681B685B693B61FB681B689B69C5
:10234C003B613B6966E07A69396AF86800F050FBDA
:10235C000346002B0DD0FB681B6C042B07D1FB68CC
:10236C001B681A68FB681B6842F400721A60012330
:10237C006BE0FB685B6A1A78FB681B681A61FB6888
:10238C005B6A5A1CFB685A62FB685B8D9BB2013B13
:10239C009AB2FB685A85FB681B8D013B9AB2FB68AD
:1023AC001A85FB681B685B6903F00403042B1BD1C3
:1023BC00FB681B8D002B17D0FB685B6A1A78FB68D7
:1023CC001B681A61FB685B6A5A1CFB685A62FB68E3
:1023DC005B8D9BB2013B9AB2FB685A85FB681B8DE7
:1023EC00013B9AB2FB681A857A69396AF86800F081
:1023FC0047FB0346002B0DD0FB681B6C042B07D14D
:10240C00FB681B681A68FB681B6842F400721A6050
:10241C0001231AE0FB681B8D002B94D1FB681B6811
:10242C001A68FB681B6842F400721A60FB68202271
:10243C0083F83D20FB68002283F83E20FB680022D5
:10244C0083F83C20002300E0022318461837BD46D1
:10245C0080BD00BF020010000000FFFF80B58AB0F5
:10246C0002AFF8607A603B600B467B81FFF710FA95
:10247C00F8610023BB61FB6893F83D30DBB2202B85
:10248C0040F01181FB690093192301228849F868F7
:10249C0000F094F90346002B01D0022304E1FB6801
:1024AC0093F83C30012B01D10223FDE0FB680122A3
:1024BC0083F83C20FB681B681B6803F00103012BAD
:1024CC0007D0FB681B681A68FB681B6842F00102A6
:1024DC001A60FB681B681A68FB681B6822F40062B0
:1024EC001A60FB68242283F83D20FB6800221A64E2
:1024FC00FB68704ADA62FB681B681A68FB681B6829
:10250C0042F480721A60FB6900933B6800224FF022
:10251C000111F86800F052F90346002B0DD0FB684E
:10252C001B681B6803F48073B3F5807F03D1FB68D1
:10253C004FF400721A640323B6E07B89DBB21A46AF
:10254C00FB681B6802F0FE021A61FFF7A1F9F86143
:10255C00FB681B685B6903F00203022B0CBF0123B1
:10256C000023DBB2FB75FB681B685B6903F48063BB
:10257C00B3F5806F0CBF01230023DBB2BB7525E0E4
:10258C00FFF786F90246FB69D31A3A689A4202D3DE
:10259C003B68002B03D1FB68A02283F83D20FB682D
:1025AC001B685B6903F00203022B0CBF01230023A1
:1025BC00DBB2FB75FB681B685B6903F48063B3F5E6
:1025CC00806F0CBF01230023DBB2BB75FB6893F853
:1025DC003D30DBB2A02B05D0FB7D002B02D1BB7DA7
:1025EC00002BCDD0FB68202283F83D20FB681B68B4
:1025FC005B6903F00203022B29D1FB681B681A6884
:10260C00FB681B6842F400721A6000233B61FB6894
:10261C001B685B693B61FB681B689B693B613B69A1
:10262C00FB690093192301222149F86800F0C6F8D0
:10263C000346002B01D0012336E0FB68202283F8EF
:10264C003D20FB68002283F83C2000232CE0FB6833
:10265C001B681A68FB681B6842F400721A60FB68FE
:10266C001B686FF480625A61FB6900931923012285
:10267C000F49F86800F0A2F80346002B01D00123A3
:10268C0012E0BB690133BB61BA697B689A42FFF403
:10269C0032AFFB68202283F83D20FB68002283F8D0
:1026AC003C20012300E0022318462037BD4680BDA4
:1026BC00020010000000FFFF80B588B002AFF86088
:1026CC007A603B600B467B81FB68DB6A7B617B69D4
:1026DC00082B06D07B69012B03D07B6913F5803F57
:1026EC0008D1FB681B681A68FB681B6842F480728F
:1026FC001A600BE0FB681B6B122B07D1FB681B6885
:10270C001A68FB681B6842F480721A603B6800937D
:10271C007B6800224FF00111F86800F04FF8034677
:10272C00002B0DD0FB681B681B6803F48073B3F59A
:10273C00807F03D1FB684FF400721A64032335E0E9
:10274C00FB681B69B3F5804F08D17B89DBB21A4655
:10275C00FB681B6802F0FE021A611BE07B89DB112F
:10276C00DBB203F00603DBB263F00F03DAB2FB68F3
:10277C001B681A613B687A680E49F86800F098F893
:10278C000346002B01D0012310E07B89DAB2FB68F1
:10279C001B681A613B687A680749F86800F088F88A
:1027AC000346002B01D0012300E000231846183704
:1027BC00BD4680BD080001000200010080B584B058
:1027CC0000AFF860B9603B601346FB7148E03B68B2
:1027DC00B3F1FF3F44D0FFF75BF80246BB69D31A55
:1027EC003A689A4202D33B68002B39D1BB681B0C68
:1027FC00DBB2012B0DD1FB681B685B69DA43BB684C
:10280C0013409BB2002B0CBF01230023DBB21A46F2
:10281C000CE0FB681B689B69DA43BB6813409BB2F6
:10282C00002B0CBF01230023DBB21A46FB799A4222
:10283C0016D1FB6800221A63FB68202283F83D2026
:10284C00FB68002283F83E20FB681B6C43F02002DF
:10285C00FB681A64FB68002283F83C20012323E008
:10286C00BB681B0CDBB2012B0DD1FB681B685B69D1
:10287C00DA43BB6813409BB2002B0CBF012300232F
:10288C00DBB21A460CE0FB681B689B69DA43BB6839
:10289C0013409BB2002B0CBF01230023DBB21A4662
:1028AC00FB799A4293D0002318461037BD4680BD61
:1028BC0080B584B000AFF860B9607A603B6071E0BD
:1028CC00FB681B685B6903F48063B3F5806F23D1ED
:1028DC00FB681B681A68FB681B6842F400721A607C
:1028EC00FB681B686FF480625A61FB6800221A63F4
:1028FC00FB68202283F83D20FB68002283F83E20F1
:10290C00FB681B6C43F00402FB681A64FB68002232
:10291C0083F83C20012367E07B68B3F1FF3F41D093
:10292C00FEF7B6FF02463B68D31A7A689A4202D386
:10293C007B68002B36D1BB681B0CDBB2012B0CD196
:10294C00FB681B685B69DA43BB6813409BB2002BC6
:10295C0014BF01230023DBB20BE0FB681B689B69EF
:10296C00DA43BB6813409BB2002B14BF0123002336
:10297C00DBB2002B16D0FB6800221A63FB68202206
:10298C0083F83D20FB68002283F83E20FB681B6C1B
:10299C0043F02002FB681A64FB68002283F83C2099
:1029AC00012321E0BB681B0CDBB2012B0CD1FB68B3
:1029BC001B685B69DA43BB6813409BB2002B14BFE6
:1029CC0001230023DBB20BE0FB681B689B69DA4335
:1029DC00BB6813409BB2002B14BF01230023DBB256
:1029EC00002B7FF46DAF002318461037BD4680BD19
:1029FC0080B584B000AFF860B9607A6034E0F868F4
:102A0C0000F086F80346002B01D0012334E0BB68AC
:102A1C00B3F1FF3F28D0FEF73BFF02467B68D31A89
:102A2C00BA689A4202D3BB68002B1DD1FB681B68A5
:102A3C005B6903F08003802B16D0FB6800221A63BD
:102A4C00FB68202283F83D20FB68002283F83E209F
:102A5C00FB681B6C43F02002FB681A64FB680022C5
:102A6C0083F83C20012307E0FB681B685B6903F0DB
:102A7C008003802BC3D1002318461037BD4680BD80
:102A8C0080B584B000AFF860B9607A6034E0F86863
:102A9C0000F03EF80346002B01D0012334E0BB6864
:102AAC00B3F1FF3F28D0FEF7F3FE02467B68D31A42
:102ABC00BA689A4202D3BB68002B1DD1FB681B6815
:102ACC005B6903F00403042B16D0FB6800221A6325
:102ADC00FB68202283F83D20FB68002283F83E200F
:102AEC00FB681B6C43F02002FB681A64FB68002235
:102AFC0083F83C20012307E0FB681B685B6903F04B
:102B0C000403042BC3D1002318461037BD4680BDE7
:102B1C0080B483B000AF78607B681B685B6903F49A
:102B2C008063B3F5806F1BD17B681B686FF4806288
:102B3C005A617B6800221A637B68202283F83D204F
:102B4C007B68002283F83E207B681B6C43F00402F8
:102B5C007B681A647B68002283F83C20012300E028
:102B6C00002318460C37BD4680BC704780B586B034
:102B7C0000AF78607B68002B01D1012372E27B6887
:102B8C001B6803F00103002B00F08780924B5B68FD
:102B9C0003F00C03042B0CD08F4B5B6803F00C037D
:102BAC00082B12D18C4B5B6803F48033B3F5803F58
:102BBC000BD1894B1B6803F40033002B6CD07B6862
:102BCC005B68002B68D101234CE27B685B68B3F532
:102BDC00803F06D1804B1B687F4A43F480331360DF
:102BEC002EE07B685B68002B0CD17B4B1B687A4A10
:102BFC0023F480331360784B1B68774A23F48023CB
:102C0C0013601DE07B685B68B3F5A02F0CD1724B91
:102C1C001B68714A43F4802313606F4B1B686E4A28
:102C2C0043F4803313600BE06B4B1B686A4A23F44C
:102C3C0080331360684B1B68674A23F4802313604E
:102C4C007B685B68002B13D0FEF722FE386108E02E
:102C5C00FEF71EFE02463B69D31A642B01D90323EF
:102C6C0000E25D4B1B6803F40033002BF0D014E042
:102C7C00FEF70EFE386108E0FEF70AFE02463B69DD
:102C8C00D31A642B01D90323ECE1534B1B6803F4D7
:102C9C000033002BF0D100E000BF7B681B6803F011
:102CAC000203002B63D04C4B5B6803F00C03002B2E
:102CBC000BD0494B5B6803F00C03082B1CD1464B23
:102CCC005B6803F48033002B16D1434B1B6803F075
:102CDC000203002B05D07B681B69012B01D001235B
:102CEC00C0E13D4B1B6823F0F8027B685B69DB009D
:102CFC00394913430B603AE07B681B69002B20D0E9
:102D0C00364B01221A60FEF7C3FD386108E0FEF76E
:102D1C00BFFD02463B69D31A022B01D90323A1E163
:102D2C002D4B1B6803F00203002BF0D02A4B1B68C1
:102D3C0023F0F8027B685B69DB00274913430B60C7
:102D4C0015E0264B00221A60FEF7A2FD386108E060
:102D5C00FEF79EFD02463B69D31A022B01D90323D1
:102D6C0080E11D4B1B6803F00203002BF0D17B6844
:102D7C001B6803F00803002B3AD07B689B69002B7F
:102D8C0019D0174B01221A60FEF782FD386108E05A
:102D9C00FEF77EFD02463B69D31A022B01D90323B1
:102DAC0060E10D4B5B6A03F00203002BF0D00120B5
:102DBC0000F0CEFA1CE00A4B00221A60FEF768FD08
:102DCC0038610FE0FEF764FD02463B69D31A022B13
:102DDC0008D9032346E100BF001002400000424224
:102DEC0080044242924B5B6A03F00203002BE9D150
:102DFC007B681B6803F00403002B00F0A680002303
:102E0C00FB758B4BDB6903F08053002B0DD1884B8A
:102E1C00DB69874A43F08053D361854BDB6903F050
:102E2C008053BB60BB680123FB75824B1B6803F4AA
:102E3C008073002B18D17F4B1B687E4A43F4807340
:102E4C001360FEF725FD386108E0FEF721FD024610
:102E5C003B69D31A642B01D9032303E1754B1B681F
:102E6C0003F48073002BF0D07B68DB68012B06D158
:102E7C006F4B1B6A6E4A43F0010313622DE07B68B3
:102E8C00DB68002B0CD16A4B1B6A694A23F00103E7
:102E9C001362674B1B6A664A23F0040313621CE03F
:102EAC007B68DB68052B0CD1614B1B6A604A43F0D5
:102EBC00040313625E4B1B6A5D4A43F00103136209
:102ECC000BE05B4B1B6A5A4A23F001031362584B0D
:102EDC001B6A574A23F0040313627B68DB68002BE0
:102EEC0015D0FEF7D5FC38610AE0FEF7D1FC02469E
:102EFC003B69D31A41F28832934201D90323B1E0E2
:102F0C004B4B1B6A03F00203002BEED014E0FEF7D0
:102F1C00BFFC38610AE0FEF7BBFC02463B69D31AE2
:102F2C0041F28832934201D903239BE0404B1B6A48
:102F3C0003F00203002BEED1FB7D012B05D13C4BA2
:102F4C00DB693B4A23F08053D3617B68DB69002B40
:102F5C0000F08780364B5B6803F00C03082B61D0C4
:102F6C007B68DB69022B46D1334B00221A60FEF7DB
:102F7C008FFC386108E0FEF78BFC02463B69D31AE4
:102F8C00022B01D903236DE0294B1B6803F000735E
:102F9C00002BF0D17B681B6AB3F5803F08D1244B22
:102FAC005B6823F400327B689B68214913434B60B8
:102FBC001F4B5B6823F474127B68196A7B685B6A2D
:102FCC000B431B4913434B601B4B01221A60FEF74A
:102FDC005FFC386108E0FEF75BFC02463B69D31AE4
:102FEC00022B01D903233DE0114B1B6803F0007346
:102FFC00002BF0D035E0104B00221A60FEF748FC95
:10300C00386108E0FEF744FC02463B69D31A022BF8
:10301C0001D9032326E0064B1B6803F00073002B39
:10302C00F0D11EE07B68DB69012B07D1012319E08D
:10303C000010024000700040600042420B4B5B6885
:10304C00FB60FB6803F480327B681B6A9A4206D1F2
:10305C00FB6803F470127B685B6A9A4201D001230F
:10306C0000E0002318461837BD4680BD0010024012
:10307C0080B584B000AF786039607B68002B01D1DB
:10308C000123D0E06A4B1B6803F007033A689A42AD
:10309C0010D9674B1B6823F0070265493B68134343
:1030AC000B60634B1B6803F007033A689A4201D02C
:1030BC000123B8E07B681B6803F00203002B20D0CF
:1030CC007B681B6803F00403002B05D0594B5B682D
:1030DC00584A43F4E06353607B681B6803F00803B1
:1030EC00002B05D0534B5B68524A43F4605353603A
:1030FC00504B5B6823F0F0027B689B684D4913438F
:10310C004B607B681B6803F00103002B40D07B688D
:10311C005B68012B07D1474B1B6803F40033002B72
:10312C0015D101237FE07B685B68022B07D1414BF3
:10313C001B6803F00073002B09D1012373E03D4B96
:10314C001B6803F00203002B01D101236BE0394B08
:10315C005B6823F003027B685B68364913434B6062
:10316C00FEF796FBF8600AE0FEF792FB0246FB685E
:10317C00D31A41F28832934201D9032353E02D4BE9
:10318C005B6803F00C027B685B689B009A42EBD196
:10319C00274B1B6803F007033A689A4210D2244B62
:1031AC001B6823F0070222493B6813430B60204B3A
:1031BC001B6803F007033A689A4201D0012332E0FE
:1031CC007B681B6803F00403002B08D0194B5B6869
:1031DC0023F4E0627B68DB68164913434B607B6821
:1031EC001B6803F00803002B09D0124B5B6823F417
:1031FC0060527B681B69DB000E4913434B6000F087
:10320C0021F802460B4B5B681B0903F00F030A49BC
:10321C00CB5C22FA03F3094A1360094B1B6818466E
:10322C00FEF7F4FA002318461037BD4680BD00BFE8
:10323C0000200240001002406C50000808000020E2
:10324C000C00002080B487B000AF0023FB6000238B
:10325C00BB6000237B6100237B6000233B611E4B22
:10326C005B68FB60FB6803F00C03042B02D0082B9B
:10327C0003D027E0194B3B6127E0FB689B0C03F064
:10328C000F03174AD35C7B60FB6803F48033002B7D
:10329C0010D0114B5B685B0C03F00103114AD35C3B
:1032AC00BB607B680D4A03FB02F2BB68B2FBF3F315
:1032BC007B6104E07B680C4A02FB03F37B617B6956
:1032CC003B6102E0054B3B6100BF3B6918461C3774
:1032DC00BD4680BC704700BF0010024000127A004F
:1032EC00845000089450000800093D0080B400AFE1
:1032FC00024B1B681846BD4680BC70470800002076
:10330C0080B500AFFFF7F2FF0246054B5B681B0A66
:10331C0003F007030349CB5C22FA03F3184680BD84
:10332C00001002407C50000880B500AFFFF7DEFFB4
:10333C000246054B5B68DB0A03F007030349CB5CD1
:10334C0022FA03F3184680BD001002407C5000089E
:10335C0080B485B000AF78600A4B1B680A4AA2FBA8
:10336C0003235B0A7A6802FB03F3FB6000BFFB6874
:10337C005A1EFA60002BF9D100BF00BF1437BD46AE
:10338C0080BC704708000020D34D621080B582B01D
:10339C0000AF78607B68002B01D1012342E07B6891
:1033AC0093F84130DBB2002B06D17B68002283F806
:1033BC0040207868FEF7CAF87B68242283F8412005
:1033CC007B681B68DA687B681B6822F40052DA6041
:1033DC00786800F0D5FC7B681B681A697B681B68F1
:1033EC0022F490421A617B681B685A697B681B68DF
:1033FC0022F02A025A617B681B68DA687B681B68BA
:10340C0042F40052DA607B6800225A647B68202206
:10341C0083F841207B68202283F842207B680022BD
:10342C005A63002318460837BD4680BD80B584B06A
:10343C0000AFF860B9601346FB80FB6893F842302C
:10344C00DBB2202B12D1BB68002B02D0FB88002BE7
:10345C0001D101230BE0FB6800221A63FB881A469A
:10346C00B968F86800F0B7FA034600E00223184682
:10347C001037BD4680BD000080B5BAB000AF786093
:10348C007B681B681B68C7F8E4307B681B68DB68CB
:10349C00C7F8E0307B681B685B69C7F8DC30002339
:1034AC00C7F8D8300023C7F8D430D7F8E43003F08D
:1034BC000F03C7F8D830D7F8D830002B0FD1D7F876
:1034CC00E43003F02003002B09D0D7F8E03003F0F0
:1034DC002003002B03D0786800F093FB5BE2D7F855
:1034EC00D830002B00F0DE80D7F8DC3003F001037D
:1034FC00002B06D1D7F8E03003F49073002B00F0CA
:10350C00D180D7F8E43003F00103002B0BD0D7F8AF
:10351C00E03003F48073002B05D07B685B6C43F0C8
:10352C0001027B685A64D7F8E43003F00403002BE3
:10353C000BD0D7F8DC3003F00103002B05D07B68EF
:10354C005B6C43F002027B685A64D7F8E43003F0FA
:10355C000203002B0BD0D7F8DC3003F00103002B57
:10356C0005D07B685B6C43F004027B685A64D7F827
:10357C00E43003F00803002B11D0D7F8E03003F04F
:10358C002003002B05D1D7F8DC3003F00103002B0E
:10359C0005D07B685B6C43F008027B685A647B68DF
:1035AC005B6C002B00F0F281D7F8E43003F02003C1
:1035BC00002B08D0D7F8E03003F02003002B02D00A
:1035CC00786800F01EFB7B681B685B6903F04003A6
:1035DC00002B14BF01230023DBB2C7F8D4307B6867
:1035EC005B6C03F00803002B03D1D7F8D430002B0D
:1035FC004FD0786800F028FA7B681B685B6903F091
:10360C004003002B41D07B681B681433C7F89C30F7
:10361C00D7F89C3053E8003FC7F89830D7F898306B
:10362C0023F04003C7F8D0307B681B681433D7F8FD
:10363C00D020C7F8A820C7F8A430D7F8A410D7F822
:10364C00A82041E80023C7F8A030D7F8A030002B01
:10365C00D9D17B68DB6B002B13D07B68DB6B7E4A8C
:10366C005A637B68DB6B1846FEF788FA0346002B1F
:10367C0016D07B68DB6B5B6B7A68D26B1046984715
:10368C000EE0786800F093F90AE0786800F08FF9A2
:10369C0006E0786800F08BF97B6800225A6475E1CB
:1036AC0000BF73E17B681B6B012B40F04F81D7F897
:1036BC00E43003F01003002B00F04881D7F8E03021
:1036CC0003F01003002B00F041810023BB607B68EA
:1036DC001B681B68BB607B681B685B68BB60BB6856
:1036EC007B681B685B6903F04003002B00F0B6801D
:1036FC007B68DB6B1B685B68A7F8BE30B7F8BE3025
:10370C00002B00F045817B689B8DB7F8BE209A4258
:10371C0080F03E817B68B7F8BE20DA857B68DB6B76
:10372C009B69202B00F088807B681B680C33C7F8E2
:10373C008830D7F8883053E8003FC7F88430D7F882
:10374C00843023F48073C7F8B8307B681B680C3363
:10375C00D7F8B820C7F89420C7F89030D7F8901055
:10376C00D7F8942041E80023C7F88C30D7F88C3078
:10377C00002BD9D17B681B6814337B677B6F53E8B4
:10378C00003F3B673B6F23F00103C7F8B4307B6805
:10379C001B681433D7F8B420C7F88020FB67F96F87
:1037AC00D7F8802041E80023BB67BB6F002BE1D129
:1037BC007B681B6814333B663B6E53E8003FFB652C
:1037CC00FB6D23F04003C7F8B0307B681B681433E3
:1037DC00D7F8B020FA66BB66B96EFA6E41E80023E2
:1037EC007B667B6E002BE3D17B68202283F8422022
:1037FC007B6800221A637B681B680C33FB64FB6CD0
:10380C0053E8003FBB64BB6C23F01003C7F8AC302B
:10381C007B681B680C33D7F8AC20BA657B65796D77
:10382C00BA6D41E800233B653B6D002BE3D17B680F
:10383C00DB6B1846FEF767F97B6802225A637B68DC
:10384C009A8D7B68DB8D9BB2D31A9BB21946786834
:10385C0000F0B6F89CE000BF193B00087B689A8D1D
:10386C007B68DB8D9BB2D31AA7F8CE307B68DB8DDF
:10387C009BB2002B00F08E80B7F8CE30002B00F0FE
:10388C0089807B681B680C33BB63BB6B53E8003FC0
:10389C007B637B6B23F49073C7F8C8307B681B6821
:1038AC000C33D7F8C8207A643B64396C7A6C41E8E5
:1038BC000023FB63FB6B002BE3D17B681B68143389
:1038CC007B627B6A53E8003F3B623B6A23F0010357
:1038DC00C7F8C4307B681B681433D7F8C4203A632C
:1038EC00FB62F96A3A6B41E80023BB62BB6A002BAE
:1038FC00E3D17B68202283F842207B6800221A6384
:10390C007B681B680C333B613B6953E8003FFB60F1
:10391C00FB6823F01003C7F8C0307B681B680C33BE
:10392C00D7F8C020FA61BB61B969FA6941E8002394
:10393C007B617B69002BE3D17B6802225A63B7F869
:10394C00CE301946786800F03BF823E0D7F8E43025
:10395C0003F08003002B09D0D7F8E03003F080038C
:10396C00002B03D0786800F0E5F814E0D7F8E430C9
:10397C0003F04003002B0ED0D7F8E03003F04003E7
:10398C00002B08D0786800F024F904E000BF02E0B6
:10399C0000BF00E000BFE837BD4680BD80B483B0F7
:1039AC0000AF786000BF0C37BD4680BC704780B458
:1039BC0083B000AF786000BF0C37BD4680BC704749
:1039CC0080B483B000AF78600B467B8000BF0C37AF
:1039DC00BD4680BC704780B485B000AFF860B9605C
:1039EC001346FB80FB68BA689A62FB68FA889A8572
:1039FC00FB68FA88DA85FB6800225A64FB6822228D
:103A0C0083F84220FB681B69002B07D0FB681B68FE
:103A1C00DA68FB681B6842F48072DA60FB681B682A
:103A2C005A69FB681B6842F001025A61FB681B680B
:103A3C00DA68FB681B6842F02002DA600023184643
:103A4C001437BD4680BC704780B495B000AF786029
:103A5C007B681B680C337B637B6B53E8003F3B63D9
:103A6C003B6B23F49073FB647B681B680C33FA6C20
:103A7C003A64FB63F96B3A6C41E80023BB63BB6BA4
:103A8C00002BE5D17B681B6814333B623B6A53E81F
:103A9C00003FFB61FB6923F00103BB647B681B687F
:103AAC001433BA6CFA62BB62B96AFA6A41E8002351
:103ABC007B627B6A002BE5D17B681B6B012B19D1D8
:103ACC007B681B680C33FB60FB6853E8003FBB60F2
:103ADC00BB6823F010037B647B681B680C337A6C27
:103AEC00BA617B617969BA6941E800233B613B6942
:103AFC00002BE5D17B68202283F842207B680022D2
:103B0C001A6300BF5437BD4680BC704780B584B083
:103B1C0000AF78607B685B6AFB60FB680022DA852B
:103B2C00FB680022DA84F868FFF741FF00BF10370A
:103B3C00BD4680BD80B485B000AF78607B6893F8DB
:103B4C004130DBB2212B3ED17B689B68B3F5805FA3
:103B5C0014D17B681B69002B10D17B681B6AFB603E
:103B6C00FB681B881A467B681B68C2F308025A6004
:103B7C007B681B6A9A1C7B681A6208E07B681B6A6C
:103B8C00591C7A6811621A787B681B685A607B68CA
:103B9C00DB8C9BB2013B9BB27A681946D184002B1B
:103BAC000FD17B681B68DA687B681B6822F0800287
:103BBC00DA607B681B68DA687B681B6842F040023D
:103BCC00DA60002300E0022318461437BD4680BC9F
:103BDC00704780B582B000AF78607B681B68DA688C
:103BEC007B681B6822F04002DA607B68202283F835
:103BFC0041207868FFF7D2FE002318460837BD46EF
:103C0C0080BD80B58CB000AF78607B6893F8423093
:103C1C00DBB2222B40F0AE807B689B68B3F5805FF3
:103C2C0017D17B681B69002B13D10023FB627B68C7
:103C3C009B6ABB627B681B685B689BB2C3F308031F
:103C4C009AB2BB6A1A807B689B6A9A1C7B689A62E0
:103C5C0026E07B689B6AFB620023BB627B689B68E7
:103C6C00B3F5805F07D07B689B68002B0AD17B681B
:103C7C001B69002B06D17B681B685B68DAB2FB6A98
:103C8C001A7008E07B681B685B68DBB203F07F038B
:103C9C00DAB2FB6A1A707B689B6A5A1C7B689A6260
:103CAC007B68DB8D9BB2013B9BB27A681946D18550
:103CBC00002B5DD17B681B68DA687B681B6822F07F
:103CCC002002DA607B681B68DA687B681B6822F468
:103CDC008072DA607B681B685A697B681B6822F00B
:103CEC0001025A617B68202283F842207B68002203
:103CFC005A637B681B6B012B35D17B6800221A63DE
:103D0C007B681B680C337B617B6953E8003F3B612C
:103D1C003B6923F010037B627B681B680C337A6A67
:103D2C003A62FB61F9693A6A41E80023BB61BB69FD
:103D3C00002BE5D17B681B681B6803F01003102B6C
:103D4C000AD10023FB607B681B681B68FB607B68E7
:103D5C001B685B68FB60FB687B689B8D1946786809
:103D6C00FFF72EFE02E07868FDF778F8002302E0FA
:103D7C00002300E0022318463037BD4680BD00000A
:103D8C0080B584B000AF78607B681B681B6923F436
:103D9C0040517B68DA687B681B680A431A617B6850
:103DAC009A687B681B691A437B685B691343BB6029
:103DBC007B681B68DB6823F4B05323F00C037A6830
:103DCC001268B9680B43D3607B681B685B6923F48A
:103DDC0040717B689A697B681B680A435A617B68EF
:103DEC001B682C4A934203D1FFF79EFAF86002E05D
:103DFC00FFF786FAF860FA6813469B0013449A00A2
:103E0C001A447B685B689B00B2FBF3F3224AA2FB6B
:103E1C0003235B091901FA6813469B0013449A00AB
:103E2C001A447B685B689B00B2FBF3F21A4BA3FB52
:103E3C0002035B09642000FB03F3D31A1B0132332A
:103E4C00154AA2FB03235B0903F0F0031944FA683B
:103E5C0013469B0013449A001A447B685B689B00D2
:103E6C00B2FBF3F20C4BA3FB02035B09642000FBD7
:103E7C0003F3D31A1B013233074AA2FB03235B095A
:103E8C0003F00F027B681B680A449A6000BF10376E
:103E9C00BD4680BD003801401F85EB510CB430B5D8
:103EAC00184B0C1E1D689DB008DA8B234FF0FF30A9
:103EBC002B601DB0BDE8304002B070474FF4027368
:103ECC00ADF814304FF000031B930CBF234604F1E4
:103EDC00FF33049307934FF6FF7302900690ADF8EF
:103EEC001630284621AB209A02A9019300F0B4F9B0
:103EFC00431CBCBF8B232B60002CDAD00022029B0E
:103F0C001A70D6E7140000200EB46FF0004110B503
:103F1C0000249DB01FAB02900690079104910948B4
:103F2C00094953F8042B0591006802A901931B94CD
:103F3C0000F092F9029B1C701DB0BDE8104003B05C
:103F4C00704700BF140000200802FFFF0346024424
:103F5C00934200D1704703F8011BF9E7014B186835
:103F6C00704700BF1400002070B500260C4D0D4C9E
:103F7C00641BA410A64209D100F076FC00260A4D61
:103F8C000A4C641BA410A64205D170BD55F8043B25
:103F9C0098470136EEE755F8043B98470136F2E7AF
:103FAC00CC500008CC500008CC500008D050000871
:103FBC007047704738B50546002940D051F8043C8D
:103FCC000C1F002BB8BFE41800F0DEF81C4A136875
:103FDC0033B9636014602846BDE8384000F0DAB8A5
:103FEC00A34208D9206821188B4201BF19685B686D
:103FFC0009182160EDE71A465B680BB1A342FAD9A8
:10400C0011685018A0420BD120680144501883420B
:10401C001160E0D118685B68084410605360DAE7FF
:10402C0002D90C232B60D6E7206821188B4201BFE4
:10403C0019685B680918216063605460CBE738BD70
:10404C00F806002070B50F4E0C463168054611B9C4
:10405C0000F0A8FB30602146284600F0A3FB431C6F
:10406C0003D14FF0FF34204670BDC41C24F0030470
:10407C00A042F8D0211A284600F094FB0130F2D16E
:10408C00EFE700BFF40600202DE9F843CD1C25F026
:10409C00030508350C2D38BF0C25002D064601DB19
:1040AC00A94204D90C2333600020BDE8F883DFF863
:1040BC00D48000F069F8D8F800301C4644BB29467F
:1040CC003046FFF7BFFF431C044658D1D8F80040D8
:1040DC002746002F43D1002C4BD02368394630465D
:1040EC0004EB030900F05EFB814542D121683046A8
:1040FC006D1A2946FFF7A6FF01303AD023682B44EE
:10410C002360D8F800305A6862BBC8F800700FE022
:10411C002268521B20D40B2A17D96119A34225609F
:10412C0018BF5960636808BFC8F8001062514B6033
:10413C00304600F02FF804F10B00231D20F007008F
:10414C00C21A1CBF1B1AA350AFE76268A3420CBF74
:10415C00C8F800205A60EBE723466468AEE73C469B
:10416C007F68B6E71A465B68A342FBD10023536015
:10417C00DEE70C233046336000F00CF894E7056062
:10418C00D6E700BFF80600200148FFF711BF00BFBB
:10419C00F00600200148FFF70CBF00BFF00600201E
:1041AC002DE9F0471F468E688246BE420C4690466B
:1041BC000B682DD8B1F90C2012F4906F26D06569DC
:1041CC00096905EB4505A3EB010905EBD5757B1CCE
:1041DC004B446D109D4238BF1D46530527D52946CB
:1041EC00FFF752FF064660B34A46216900F0F8FA21
:1041FC00A38923F4906343F08003A38126614E448A
:10420C0026603E466561A5EB0905A560BE4200D956
:10421C003E4632464146206800F0AAFA0020A368C8
:10422C009B1BA360236833442360BDE8F0872A46B8
:10423C0000F0E4FA06460028E0D150462169FFF769
:10424C00B9FE0C23CAF80030A3894FF0FF3043F0BD
:10425C004003A381E9E700002DE9F04F98468B89D4
:10426C0007461B060D4614469DB010D50B6973B955
:10427C004021FFF709FF2860286130B90C233B600F
:10428C004FF0FF301DB0BDE8F08F40236B61002371
:10429C00099320238DF8293030234FF00109CDF8F4
:1042AC000C80DFF898818DF82A3023469A4613F853
:1042BC00012B0AB1252AF9D1BAEB040B0BD05B46C2
:1042CC00224629463846FFF76BFF013000F0A780E5
:1042DC00099A5A4409929AF80030002B00F09F80FA
:1042EC0000234FF0FF32CDE905230AF1010A0493B4
:1042FC0007938DF853301A935446052214F8011B7A
:10430C004E4800F05FFA049AD8B9D00644BF202377
:10431C008DF85330110744BF2B238DF853309AF886
:10432C0000302A2B15D0544600204FF00A0C079A67
:10433C00214611F8013B303B092B4BD9B0B1079208
:10434C0014E0A0EB080309FA03F31343A246049309
:10435C00D2E7039B191D1B680391002BBBBF5B426B
:10436C0042F0020207930793B8BF049223782E2BD6
:10437C000AD163782A2B32D1039B02341A1D1B6895
:10438C00039243EAE3730593DFF8B4A0032250468B
:10439C00217800F017FA38B14022049BA0EB0A00F8
:1043AC00824013430134049314F8011B0622254860
:1043BC008DF8281000F006FA002836D0224B1BBBD3
:1043CC00039B073323F0070308330393099B334400
:1043DC0009936AE70C4601200CFB0232A8E7002384
:1043EC004FF00A0C194601340593204610F8012BA6
:1043FC00303A092A03D9002BC6D00591C4E70446EC
:10440C0001230CFB0121F0E703AB00932A4638464D
:10441C000E4B04A9AFF30080421C0646D6D1AB89E3
:10442C005B063FF52DAF09982CE703AB00932A46AA
:10443C003846064B04A900F07DF8EDE796500008CD
:10444C009C500008A050000800000000AD4100087E
:10445C002DE9F047164698468A680B690746934241
:10446C00B8BF1346336091F843200C46DDF820901A
:10447C000AB1013333602368990642BF33680233B3
:10448C003360256815F0060506D104F1190AE368B6
:10449C0032689B1AAB422BDC94F843302268003B09
:1044AC0018BF0123920630D44146384604F143022A
:1044BC00C847013023D02368226903F00603042B7C
:1044CC0014BF002533684FF0000608BFE56804F1FF
:1044DC001A0408BFED1A54F8123C08BF25EAE5751A
:1044EC009342C4BF9B1AED18B5421AD1002008E0C4
:1044FC000123524641463846C847013003D14FF09C
:10450C00FF30BDE8F0870135C1E73020E11881F8B4
:10451C0043005A1C94F845102244023382F843108D
:10452C00C2E70123224641463846C8470130E6D04F
:10453C000136D9E72DE9FF470F7E9146782F80464B
:10454C000C469A460C9E01F1430207D8622F0AD8FA
:10455C00002F00F0D180582F00F0B88004F14206F3
:10456C0084F842703AE0A7F16303152BF6D801A149
:10457C0051F823F0D9450008ED45000869450008BD
:10458C00694500086945000869450008ED450008C3
:10459C006945000869450008694500086945000837
:1045AC00EB46000817460008A546000869450008B8
:1045BC00694500080D4700086945000817460008C2
:1045CC006945000869450008AD46000833681A1DA6
:1045DC001B68326004F1420684F8423001239CE0EF
:1045EC0033682068191D3160060601D51D6803E08B
:1045FC004506FBD5B3F90050002D03DA2D236D428F
:10460C0084F843300A23584811E0216833680806BF
:10461C0053F8045B02D4490648BFADB26F2F336028
:10462C0014BF0A2308235048002184F843106668FD
:10463C00002EA66005DB21682E4321F004012160C9
:10464C004BD01646B5FBF3F103FB1157C75D06F8CB
:10465C00017D2F46BB420D46F4D9082B0BD12368A4
:10466C00DF0708D5236961689942DEBF302306F85D
:10467C00013C06F1FF36921B22614B462146404617
:10468C00CDF800A003AAFFF7E3FE01304AD14FF0AA
:10469C00FF3004B0BDE8F087236843F020032360AB
:1046AC007827324884F84570236831681F0651F822
:1046BC00045B02D45F0648BFADB23160D90744BF7A
:1046CC0043F0200323601DB11023ADE72648E9E732
:1046DC00236823F020032360F6E71646BDE7336812
:1046EC002568181D616930602E061B6801D519609C
:1046FC0002E06806FBD51980002316462361BCE74F
:10470C00336800211A1D32601E686268304600F062
:10471C0059F808B1801B606063682361002384F83A
:10472C004330AAE73246494640462369D047013018
:10473C00ADD023689B0713D4E068039B9842B8BFA5
:10474C001846A6E70123324649464046D047013079
:10475C009DD00135E36803995B1AAB42F2DCEBE7C1
:10476C00002504F11906F5E7A7500008B850000819
:10477C00884210B501EB020402D98442234607D8C3
:10478C00431EA14208D011F8012B03F8012FF8E7C2
:10479C00014602448A4200D110BD13F8014D02F8C3
:1047AC00014DF7E738B50023054D044608462B604C
:1047BC00FCF7B4FF431C02D12B6803B1236038BD56
:1047CC00EC060020034610B5C9B2024493421846C9
:1047DC0001D1002003E0047801338C42F6D110BDE6
:1047EC000A44914200F1FF3300D1704710B511F823
:1047FC00014B914203F8014FF9D110BD2DE9F04165
:10480C00074614460D4621B91146BDE8F041FFF7A5
:10481C003BBC2AB9FFF7CEFB25462846BDE8F08104
:10482C0000F01AF88442064602D8B4EB500FF4D8C4
:10483C0021463846FFF728FC804608B94546ECE788
:10484C00B4422246294628BF3246FFF7C9FF294603
:10485C003846FFF7AFFBF1E751F8043C181F002B6B
:10486C00BCBF0B58C0187047F8B500BFF8BC08BCEB
:10487C009E467047F8B500BFF8BC08BC9E46704712
:10488C004465766963653A20232564004469676949
:10489C0074616C3A203020202000000053796E6344
:1048AC00726F3A20302E303020200000576169742E
:1048BC00696E672E2E2E000025752E2575000000C2
:1048CC004469676974616C3A2025752020200000CA
:1048DC0053796E63726F3A202D25752E2575202025
:1048EC000000000053796E63726F3A2025752E25F7
:1048FC0075202000000000000000000000000000F7
:10490C00000000000000000000100010001000105B
:10491C00001000100000001000000000002800280B
:10492C000028000000000000000000000000000053
:10493C0000240024007C00240048007C004800482F
:10494C0000000000003800540050003800140054DF
:10495C0000540038001000000020005400580030B3
:10496C00002800540014000800000000001000286B
:10497C0000280010003400480048003400000000FB
:10498C0000100010001000000000000000000000EB
:10499C000000000000080010002000200020002073
:1049AC000020002000100008002000100008000863
:1049BC000008000800080008001000200010003853
:1049CC0000100028000000000000000000000000A3
:1049DC000000000000100010007C0010001000000F
:1049EC0000000000000000000000000000000000BB
:1049FC00000000100010001000000000000000007B
:104A0C000000003800000000000000000000000062
:104A1C00000000000000000000000010000000007A
:104A2C0000080008001000100010001000200020EA
:104A3C0000000000003800440044005400440044CE
:104A4C00004400380000000000100030005000103E
:104A5C00001000100010001000000000003800448E
:104A6C0000440004000800100020007C000000003E
:104A7C00003800440004001800040004004400380E
:104A8C000000000000080018002800280048007CE6
:104A9C000008000800000000007C00400040007886
:104AAC0000040004004400380000000000380044FA
:104ABC00004000780044004400440038000000002E
:104ACC00007C0004000800100010002000200020D2
:104ADC00000000000038004400440038004400444A
:104AEC00004400380000000000380044004400443A
:104AFC00003C0004004400380000000000000000EE
:104B0C000010000000000000000000100000000079
:104B1C000000000000000010000000000000001069
:104B2C000010001000000000000C003000400030AD
:104B3C00000C000000000000000000000000007CE1
:104B4C000000007C000000000000000000000000DD
:104B5C000060001800040018006000000000000055
:104B6C000038004400040008001000100000001081
:104B7C000000000000380044004C0054005C004071
:104B8C000040003800000000001000280028002819
:104B9C000028007C00440044000000000078004421
:104BAC0000440078004400440044007800000000F9
:104BBC0000380044004000400040004000440038F1
:104BCC000000000000700048004400440044004411
:104BDC000048007000000000007C00400040007C99
:104BEC00004000400040007C00000000007C0040C1
:104BFC0000400078004000400040004000000000F1
:104C0C000038004400400040005C00440044003880
:104C1C0000000000004400440044007C00440044B8
:104C2C000044004400000000003800100010001088
:104C3C0000100010001000380000000000040004F8
:104C4C0000040004000400040044003800000000CC
:104C5C0000440048005000600050004800480044E8
:104C6C0000000000004000400040004000400040B8
:104C7C000040007C000000000044006C006C0054FC
:104C8C000044004400440044000000000044006460
:104C9C00006400540054004C004C00440000000020
:104CAC0000380044004400440044004400440038F0
:104CBC0000000000007800440044004400780040EC
:104CCC000040004000000000003800440044004454
:104CDC0000440044005400380004000000780044F4
:104CEC0000440044007800480048004400000000E4
:104CFC000038004400400030000800040044003834
:104D0C0000000000007C00100010001000100010CB
:104D1C000010001000000000004400440044004457
:104D2C0000440044004400380000000000440044EB
:104D3C00004400280028002800100010000000008B
:104D4C0000440044005400540054006C0028002817
:104D5C00000000000044002800280010001000286B
:104D6C0000280044000000000044004400280028F3
:104D7C00001000100010001000000000007C000467
:104D8C0000080010001000200040007C0000000013
:104D9C00001800100010001000100010001000107F
:104DAC00001000180020002000100010001000104F
:104DBC000008000800000000003000100010001077
:104DCC00001000100010001000100030001000281F
:104DDC00002800440000000000000000000000005B
:104DEC0000000000000000000000000000000000B7
:104DFC00000000FE00200010000000000000000079
:104E0C00000000000000000000000000003800441A
:104E1C00003C0044004C0034000000000040004006
:104E2C000058006400440044006400580000000076
:104E3C0000000000003800440040004000440038EE
:104E4C0000000000000400040034004C0044004446
:104E5C00004C00340000000000000000003800444A
:104E6C00007C00400044003800000000000C0010E2
:104E7C00007C00100010001000100010000000005A
:104E8C00000000000034004C00440044004C00348E
:104E9C0000040078004000400058006400440044C6
:104EAC0000440044000000000010000000700010DE
:104EBC000010001000100010000000000010000096
:104ECC00007000100010001000100010001000E026
:104EDC000040004000480050006000500048004472
:104EEC0000000000007000100010001000100010F6
:104EFC0000100010000000000000000000780054BA
:104F0C000054005400540054000000000000000045
:104F1C0000580064004400440044004400000000B9
:104F2C0000000000003800440044004400440038F5
:104F3C000000000000000000005800640044004421
:104F4C000064005800400040000000000034004C99
:104F5C0000440044004C0034000400040000000035
:104F6C000058006400400040004000400000000079
:104F7C0000000000003800440030000800440038F5
:104F8C0000000000002000200078002000200020FD
:104F9C000020001800000000000000000044004445
:104FAC0000440044004C00340000000000000000ED
:104FBC0000440044002800280028001000000000D5
:104FCC0000000000005400540054006C002800281D
:104FDC000000000000000000004400280010001039
:104FEC0000280044000000000000000000440044C1
:104FFC0000280028001000100010006000000000C5
:10500C00007C0008001000200040007C0000000024
:10501C0000180010001000100020002000100010DC
:10502C0000100018001000100010001000100010EC
:10503C0000100010001000100030001000100010C4
:10504C0000080008001000100010003000000000E4
:10505C0000000074004C0000000000000000000084
:10506C00000000000000000001020304060708090C
:10507C0000000000010203040203040506070809EE
:10508C000A0B0C0D0E0F10100102232D302B2000DB
:10509C00686C4C00656667454647003031323334E6
:1050AC003536373839414243444546003031323386
:1050BC003435363738396162636465660000000048
:0450CC0031010008A6
:0450D0000D010008C6
:1050D400070A00000049000800127A0010000000CE
:1050E400010000001800002000000000B4050020AA
:1050F4001C060020840600200000000000000000C0
:10510400000000000000000000000000000000009B
:10511400000000000000000000000000000000008B
:10512400000000000000000000000000000000007B
:045134000000000077
:04000005080017A137
:00000001FF
